:0400000006EF2FF0E8
:105D820012001200120012001200DDEC32F01200BA
:105D9200698468986D82000E0D6E750E0C6E000E91
:105DA2000E6E000E0F6E000E116E000E106EDCEC09
:105DB20030F01200000E0D6E740E0C6E000E0E6EA0
:105DC200000E0F6E000E116E000E106EDCEC30F045
:105DD2006D92699401D0689468A41200FCD701C046
:105DE20007F002C008F008D007C0D9FF08C0DAFFE8
:105DF20003C0DFFF074A082A0506D8A006060528C1
:105E0200F3E10628D8B41200EFD701EE00F0C30E7A
:105E1200EE6AE806FDE100EE60F0680EEE6AE80662
:105E2200FDE100EE4EF0120EEE6AE806FDE1000E14
:105E3200F86E000139EF30F0000E586E9FC0D9FFA6
:105E4200A0C0DAFF000EDF6E040E00019F19016E82
:105E5200A051026E01C0D9FF02C0DAFF000EDF6E50
:105E62009AAF12009A9F120070A017D056C0D9FFA5
:105E720057C0DAFF800EDE18D8A40ED09FC0D9FF1B
:105E8200A0C0DAFF840EDE18D8A406D056C0D9FF0F
:105E920057C0DAFF8C0EDF6E7090689A12000B6E9C
:105EA200700E0B24096E0A6A0F0E0A2209C0D9FF6E
:105EB2000AC0DAFF08C0DFFF08A405D0000E016E99
:105EC2000B501CEC31F008A21200010E016E0B50B7
:105ED2001CEC31F01200000E0C6E0AAE06D0096CFA
:105EE2000A1ED8B00A2A010E0C6E09C001F00AC0BF
:105EF20002F0036A8E0E046E0CC005F086EC32F0DE
:105F020001C009F002C00AF003C00BF0120009D070
:105F12005DEC34F01200CBEC34F0120039EC35F0C9
:105F2200120025EE04F0DECF01F0DDCF02F00250C8
:105F3200000AD8A412000150000AD8B4E9D7010A15
:105F4200D8B4E9D7030AD8A41200E8D71E0E086E07
:105F5200010E50EC2FF01E0E086E020E50EC2FF0C8
:105F62001E0E086E030E50EC2FF0000E016E7A0E1C
:105F7200026E060E036E010E046E030E38EC32F052
:105F820001C0B7F002C0B8F012003A503B103C100A
:105F9200D8B406D0000E3A1A000E3B1A800E3C1AF4
:105FA20037C02BF038C02CF039C02DF03AC02EF09B
:105FB2003BC02FF03CC030F081EC3BF02BC037F0FF
:105FC2002CC038F02DC039F01200020E5818D8A497
:105FD20003D019EC36F012001DEC2FF00001C25173
:105FE200D8A419D020EE01F05450D9265550DA2207
:105FF200080EDF6E20EE02F05450D9265550DA22F8
:10600200000EDE6E050EDD6E54C0D9FF55C0DAFFFC
:106012008C0EDF6E1200000EC26F12009FC0D9FFFD
:10602200A0C0DAFF0001DFAE06D09FC0D9FFA0C03A
:10603200DAFF000EDF6E000E596E000E586E000E73
:10604200536E000E526E000E516E92EC33F0000E43
:106052000D6E030E0C6E000E0E6E000E0F6E000E15
:10606200116E000E106EDCEC30F0AFEC3AF0120064
:106072000E0EC16EB60EC06E3F0E926E9368440E47
:10608200946E000E956E000E966E000E806E000EDF
:10609200816E000E826E000E836E000E846EF19E83
:1060A200C6EC2EF0A7EC31F05EEC39F0200E5A1857
:1060B200D8A403D08290828202D0828082921F0E64
:1060C2005A64F2D76DB2F0D755EC3CF0FFEC36F0E3
:1060D20073EC37F0E9D7518E710E016E0F0E026E1E
:1060E200000E046E000E036E000E066E020E056EAA
:1060F200F0EC2EF05C0E016E000E026E000E046ECD
:10610200000E036E000E066E010E056EF0EC2EF010
:1061120002C55FF05F50D8A403D0100E5A6E120071
:10612200200E5A6E000E0D6E010E0C6E5F0E0E6E7C
:10613200000E0F6E000E116E010E106EDCEC30F0D0
:10614200120003AE0FD0000E076E000E086E800E16
:10615200096E0150075C016E02500858026E03502E
:106162000958036E06AE0FD0000E076E000E086EC1
:10617200800E096E0450075C046E05500858056EC7
:1061820006500958066E000E011A000E021A800E01
:10619200031A000E041A000E051A800E061A045085
:1061A200015C0550025806500358D8B002D0D8906E
:1061B2001200D880120017D0A7EC2FF01200C2EC08
:1061C2002EF0120088EC2FF01200C5EC2EF0120017
:1061D200C3EC2EF01200C4EC2EF01200C1EC2EF033
:1061E200120000F012000CC012F00DC013F0135098
:1061F200000AD8B404D07F0AD8A4120017D01250D3
:10620200010AD8B4D9D7030AD8B4D9D7010AD8B465
:10621200D9D7710AD8B4E5D7010AD8B4D6D7070AB4
:10622200D8B4D9D7010AD8A41200D2D71250FF0A83
:10623200D8A41200D3D7056E000E066E040E076EA8
:106242000150020DF3CF02F00550040DF350022469
:10625200036ED8900336D8900334046E0440E842AB
:106262003F0B046E0450040DF3500626F45007222F
:1062720006C0D9FF07C0DAFFDF9E0150D8A407D0BD
:106282000550020DA70EF324D96E000E06D005505C
:10629200020D9F0EF324D96E000EF420DA6E06C0B2
:1062A200DEFF07C0DDFF06C0D9FF07C0DAFFDF9CB3
:1062B20020EE04F00650D9260750DA22DF8C1200B5
:1062C2009FC0D9FFA0C0DAFF0001000EDFBC010EA3
:1062D200036E040E9F1B080E5A18D8A409D002C5DB
:1062E2006EFF6E50D8B402D0100E01D0040E5A6E5A
:1062F2005804D8A428D020EE02F09F51D926A051EC
:10630200DA22200EDE6E050EDD6EDBEC38F0020EB8
:106312005918D8A407D09FC0D9FFA0C0DAFF840EB5
:10632200DF6E12000350D8A407D09FC0D9FFA0C0CF
:10633200DAFFC80EDF6E12009FC0D9FFA0C0DAFFDD
:10634200880EDF6E12001DEC2FF01200000E6A6E36
:10635200000E686E160E6F6E9F0E6B6E7B0E696E70
:106362006D8C000E6E6E710E016E0F0E026E000EBF
:10637200046E000E036E000E066E020E056EF0EC49
:106382002EF06D9C000E096E0950040D000EF324D0
:10639200D96E040EF420DA6EDE6ADE6ADE6ADD6A27
:1063A200092A0F0E0964F0D7160E706E01D0689696
:1063B20068B6FDD7000E516E000E00019A6F000EF6
:1063C2009C6F000E9B6F6D98080E9F6F040EA06F5E
:1063D200000E5F6E000E5A6E1200000E0501206F55
:1063E200000E216F2FD0518E0001C305D8A435D0E5
:1063F2000501208332D0518E30D0518E04BF0AD095
:1064020004510F0B016E0150020DA70EF324D96E39
:10641200000E09D004510F0B016E0150020D9F0EA8
:10642200F324D96E000EF420DA6EDECF02F0DDCF57
:1064320003F002C0D9FF03C0DAFFDFA40ED0010EC1
:10644200206F0BD000511F0B000AD8B4CCD7010A21
:10645200D8B4D1D7030AD8B4D0D751AE1200200E87
:106462004E6E050E4F6E5180020E526E1200056E78
:106472000150D8B407D00550020D9F0EF324D96EF7
:10648200000E06D00550020DA70EF324D96E000EA1
:10649200F420DA6EDECF06F0DDCF07F020EE02F058
:1064A2000650D9260750DA2202C0DEFF03C0DDFF04
:1064B20020EE01F00650D9260750DA2204C0DFFF91
:1064C20006C0D9FF07C0DAFF400EDF1606C0D9FFAB
:1064D20007C0DAFF880EDF120150D8B407D005508A
:1064E200020D9F0EF324D96E000E06D00550020D48
:1064F200A70EF324D96E000EF420DA6E040EDF1A12
:1065020006C001F007C002F012000450D8B405D052
:10651200015002100310D8A40CD0000E016E000E20
:10652200026E000E036E1200042AD8900332023269
:106532000132000E0114066E000E0214076EFE0EEA
:106542000314086E065007100810D8B40CD0ECD70C
:10655200042A010E0126000E0222000E0322D89008
:10656200033202320132000E0114066E000E0214D2
:10657200076EFF0E0314086E065007100810D8B4F9
:1065820006D0E6D70406D89001360236033602BE9C
:1065920003D0020E0460F6D704A0029ED890043203
:1065A200045003120550D8A4038E01C001F002C0AA
:1065B20002F003C003F01200000E026E000E016E24
:1065C200D8900134D96E0234DA6E600ED926000EEC
:1065D200DA22000EDF6ED8900134D96E0234DA6E00
:1065E200610ED926000EDA22000EDF6E000E0001C7
:1065F2006A6F000E6C6F000E6B6F000E6E6F000EF6
:106602006D6FD8900134D96E0234DA6E6F0ED926CE
:10661200000EDA22000EDF6ED8900134D96E0234F9
:10662200DA6E700ED926000EDA22000EDF6E000E30
:10663200796F000E7B6F000E7A6F000E7D6F000E79
:106642007C6F014A022A02BEBBD7025004E1050E4A
:10665200015CD8A0B5D7000EBD6F000EBE6F000E54
:10666200BB6F000EBC6F12005BC014F0FD0E14165F
:10667200D8A44FD05BC014F0D89014323F0E141639
:106682001450040D000EF324566E040EF420576EBF
:1066920056C054F057C055F0040E541A56C0D9FFD4
:1066A20057C0DAFFDF30E8320F0B0D0AD8A42ED024
:1066B20020EE02F05650D9265750DA22200EDE186C
:1066C20022E1050EDE18D8A41ED020EE02F05650AC
:1066D200D9265750DA22000EDE6E050EDD6E000E50
:1066E200166E200E1624D96EDA6A050EDA22000E14
:1066F2001624E16EE26A050EE222DFCFE7FF162AD8
:10670200070E1664EED70FEC30F01200E6EC2FF015
:1067120012005B50FD0B040AD8A4120061EC31F0A8
:10672200120005010039E832030B0009D8A4120057
:1067320039D0518E080E5A6E1200A8EC35F01200B4
:106742006CEC30F012005F0E4E6E000E4F6E5180F8
:10675200010E526E518E1200EEEC31F01200E7EC97
:1067620037F012005C0E04254E6E4F6A000E4F2267
:10677200EED7518E5C0E0425D96EDA6A000EDA224B
:1067820002C5DFFF1200000E0D6E020E0C6E000E2F
:106792000E6E000E0F6E000E116E000E106EDCEC0F
:1067A20030F012000151000AD8B4D6D7010AD8B489
:1067B200D6D7020AD8B4D3D7060AD8B4BAD7030AAE
:1067C200D8B4BBD7010AD8B4DED70F0AD8B4BBD726
:1067D200010AD8B4B5D7030AD8B4C4D7010AD8B4C9
:1067E200C8D7070A120003C005F0066A076A023416
:1067F200053601E3068005500F6E0F50D8A409D06C
:10680200000E016E000E026E000E036E000E046E8C
:106812001200170E056E01C006F002C007F003C099
:1068220008F00528096E04D0D890083207320632E3
:10683200092EFAD706500A6E028EFF0E0116FF0EBF
:106842000216000E031601500B6E02500C6E03501E
:106852000D6E0E6A8E0E0F5E0FAE0DD00F50800AB7
:106862008F0FD8A0CDD7D8900E320D320C320B320A
:106872000F3EF9D70DD0170E0F6407D0C1D7D890AD
:106882000B360C360D360E360F060F50D8A4F7D73E
:106892000A50D8B408D00E1E0D1E0C1E0B6C000E32
:1068A2000C220D220E220BC001F00CC002F00DC012
:1068B20003F00EC004F01200050100511F0BE806A0
:1068C200D8A412000451D8A41200060E0119D8B49B
:1068D2001CD025D05F04D8A422D0240E4E6E7E0E8A
:1068E2004F6E000E536E090E526EC00E0CD05F0436
:1068F200D8A415D0C50E4E6E7E0E4F6E000E536E8E
:106902004A0EF2D7800E516E0AD00351210AD8B432
:10691200E1D7030AD8B4EBD7010AD8B4F3D70039C8
:10692200E832030BE806D8A4120020D05E0E4E6EA9
:10693200000E4F6E000E536E010E526EC10E516E5E
:106942001200800E516E03C55EF012005D0E4E6E97
:10695200000E4F6E000E536E010E526E810E516E7E
:106962001200800E516E02C55DF012000151010A43
:10697200D8B41200030AD8B4D9D7010AD8B4E6D7DA
:106982000A0AD8B41200030AD8B4DBD7010AD8A481
:106992001200E7D7050100511F0BE806D8A4120028
:1069A2000405D8A41200060E0119D8B41CD025D0B3
:1069B2005F04D8A422D0240E4E6E7E0E4F6E000EBF
:1069C200536E090E526EC00E0CD05F04D8A415D0BF
:1069D2007B0E4E6E7E0E4F6E000E536E4A0EF2D737
:1069E200800E516E0AD00351210AD8B4E1D7030AAE
:1069F200D8B4EBD7010AD8B4F3D70039E832030B85
:106A0200E806D8A4120020D0C70E4E6E000E4F6EBC
:106A1200000E536E010E526EC10E516E1200800EA8
:106A2200516E03C5C7F01200C60E4E6E000E4F6EB9
:106A3200000E536E010E526E810E516E1200800EC8
:106A4200516E02C5C6F012000151010AD8B41200FB
:106A5200030AD8B4D9D7010AD8B4E6D70A0AD8B4F7
:106A62001200030AD8B4DBD7010AD8A41200E7D770
:106A7200050100511F0BE806D8A41200020E0419EA
:106A8200D8A41200060E0119D8B41CD025D05F0478
:106A9200D8A422D0240E4E6E7E0E4F6E000E536E80
:106AA200090E526EC00E0CD05F04D8A415D00F0E82
:106AB2004E6E7F0E4F6E000E536E3F0EF2D7800E5B
:106AC200516E0AD00351210AD8B4E1D7030AD8B4CF
:106AD200EBD7010AD8B4F3D70039E832030BE80642
:106AE200D8A4120020D0C50E4E6E000E4F6E000EBE
:106AF200536E010E526EC10E516E1200800E516E17
:106B020003C5C5F01200C40E4E6E000E4F6E000E8D
:106B1200536E010E526E810E516E1200800E516E36
:106B220002C5C4F012000151010AD8B41200030ACE
:106B3200D8B4D9D7010AD8B4E6D70A0AD8B4120011
:106B4200030AD8B4DBD7010AD8A41200E7D7800E13
:106B520005010019D8A41200C00E516E5ED0E80ED5
:106B62004E6E7F0E4F6E000E536E120E526E12005C
:106B72000251020D100EF324F66E7E0EF420F76E13
:106B82000900F5CF4EF00A00F5CF4FF0020E4E2469
:106B9200016E000E4F20026E01C0F6FF02C0F7FF29
:106BA200F86A070EF76407D00900F5CF52F0090022
:106BB200F5CF53F008D0F6CFE1FFF7CFE2FFE6CFF3
:106BC20052F0E6CF53F01200070E026123D00251B9
:106BD200020D040EF324F66E7E0EF420F76E090009
:106BE200F5CF4EF00A00F5CF4FF04EC0F6FF4FC082
:106BF200F7FFF86A070EF76403D00800F55005D0D6
:106C0200F6CFE1FFF7CFE2FFE750016E0150526E7F
:106C1200536A1200000E516E12000351010AD8B4D9
:106C22009ED7030AD8B4A4D7010AD8B4CDD7F2D7D5
:106C320020EE01F05650D9265750DA22DF50026E6C
:106C4200025000019B5D000E9C59D8B003D09BC03E
:106C520002F007D002509B5D9B6F9C51D8A09C050F
:106C62009C6F000E016E0FD0200E0124D96EDA6ADD
:106C7200050EDA2297C0E1FF98C0E2FFDFCFE7FFFF
:106C8200974B982B012A0250015CD8A0EDD79B515B
:106C92009C11D8B426D020EE01F05450D92655507C
:106CA200DA22080EDF6E20EE02F05450D92655503B
:106CB200DA22200EDE6E050EDD6E56C0D9FF57C0F9
:106CC200DAFFDFBC07D054C0D9FF55C0DAFFC80EC7
:106CD200DF6E120054C0D9FF55C0DAFF880EDF6E96
:106CE200120020EE01F05450D9265550DA22080E37
:106CF200DF6E20EE02F05450D9265550DA22000EF3
:106D0200DE6E050EDD6E54C0D9FF55C0DAFF840E6B
:106D1200DF6E9A9F12000FC013F0146A156A0E34C8
:106D2200133601E3148013501A6E1A50D8A407D0F8
:106D3200000E0D6E000E0E6E000E0F6E120012C0CF
:106D420013F0146A156A1134133601E314801350D8
:106D52001B6E1B50D8A407D0000E0D6E000E0E6ED7
:106D6200000E0F6E1200000E176E000E186E000E4F
:106D7200196E1B50890F1A5E0FC01BF012501B1A9E
:106D8200800E1B160E8EFF0E0D16FF0E0E16000E37
:106D92000F16118EFF0E1016FF0E1116000E121690
:106DA200180E166ED89017361836193610500D5C1C
:106DB20011500E5812500F58D8A007D010500D5E27
:106DC20011500E5A12500F5A1780D8900D360E36A7
:106DD2000F36162EE7D717C001F018C002F019C0FF
:106DE20003F01AC004F01BC005F086EC32F001C0BB
:106DF2000DF002C00EF003C00FF012000001BD51F1
:106E0200BE11D8B40ED0BDC0D9FFBEC0DAFFDFAE0E
:106E120003D0086A082A01D0086A0850096E0A6A73
:106E220004D0000E0A6E000E096E09500A10D8A492
:106E32001200060113931391139513971399139B41
:106E4200139D139F1491149314951497149915512B
:106E5200F00B0809156F800E166F800E176F000178
:106E62006005D8A403D0000E0601176F0001620569
:106E7200D8A402D00601176900016605D8A402D081
:106E82000601166900016405D8A403D0000E0601AC
:106E9200166F00016805D8A402D006011381000113
:106EA2006A05D8A40FD06BC016F66DC017F664053C
:106EB200D8A402D00601138100016605D8A402D02D
:106EC20006011383010E016E130E026E060E036E8F
:106ED200070E046E010E38EC32F001C0BDF002C0A4
:106EE200BEF012000001BB51BC11D8B40ED0BBC021
:106EF200D9FFBCC0DAFFDFAE03D0086A082A01D08E
:106F0200086A0850096E0A6A04D0000E0A6E000E62
:106F1200096E09500A10D8A4120006015693569120
:106F2200569556975699569B569D569F57915793ED
:106F32005795579757995851F00B0809586F800E7B
:106F4200596F800E5A6F00016F05D8A403D0000E4E
:106F520006015A6F00017105D8A402D006015A69D0
:106F620000017505D8A402D0060159690001730514
:106F7200D8A403D0000E0601596F00017705D8A4EA
:106F820002D00601568100017905D8A40FD07AC03B
:106F920059F67CC05AF67305D8A402D00601568170
:106FA20000017505D8A402D006015683010E016EB8
:106FB200560E026E060E036E070E046E020E38ECBB
:106FC20032F001C0BBF002C0BCF0120005010205A4
:106FD200D8A40FD000511F0B0009D8A40AD0518E9B
:106FE200030E0119D8A402D0010E01D0000E000137
:106FF200C36F05010251D8A4120000511F0B020AEF
:10700200D8A4120004510F0B0009D8B41200518EFB
:1070120004BF0AD004510F0B016E0150020DA70EDE
:10702200F324D96E000E09D004510F0B016E0150EA
:10703200020D9F0EF324D96E000EF420DA6EDECF1D
:1070420005F0DDCF06F0030E0119D8A407D005C064
:10705200D9FF06C0DAFF840EDF6E120004510F0B57
:10706200016E026A700E0124036E0F0E0220046E7E
:1070720003C0D9FF04C0DAFFFE0EDE16FF0EDD16D6
:1070820004AF0FD005C0D9FF06C0DAFF000EDF6ED5
:10709200040E051A05C0D9FF06C0DAFF400EDF6EE6
:1070A200120005C0D9FF06C0DAFF880EDF6E040E9B
:1070B200051A05C0D9FF06C0DAFFC80EDF6E12003E
:1070C2001EC022F0236A246A1D34223601E3238083
:1070D2002250256E2550D8A407D0000E1C6E000E3B
:1070E2001D6E000E1E6E120021C022F0236A246A59
:1070F2002034223601E3238022502A6E2A50D8A45B
:1071020007D0000E1C6E000E1D6E000E1E6E1200C9
:107112002A507B0F25261EC02AF021502A1A800EE3
:107122002A161D8E208EFF0E1F16FF0E2016000E31
:107132002116000E266E000E276E000E286E070E18
:10714200296E1CA006D01F5026262050272221502F
:107152002822D8901E321D321C32D8901F3620367B
:107162002136292EEED7090E296E1CA006D01F50FB
:1071720026262050272221502822D8901E321D3246
:107182001C32D890283227322632292EEED726C03A
:1071920001F027C002F028C003F025C004F02AC085
:1071A20005F086EC32F001C01CF002C01DF003C0F5
:1071B2001EF01200535013E1080E525CD8B00FD0EB
:1071C20052C001F053C002F05950D8A402D0010EAF
:1071D20004D05904D8A407D0020E596E04D0000E70
:1071E200026E080E016E9FC0D9FFA0C0DAFF000137
:1071F200DF929FC0D9FFA0C0DAFFDF909FC0D9FF06
:10720200A0C0DAFF0250DF1220EE01F09F51D92612
:10721200A051DA2201C0DFFF0150525C526E0250CF
:107222005358536E200EBF6F050EC06F51A01ED073
:107232003FD04EC0F6FF4FC0F7FFF86ABFC0D9FF7C
:10724200C0C0DAFF070EF76403D00800F55005D07E
:10725200F6CFE1FFF7CFE2FFE750DF6E4E4A4F2A4B
:107262000001BF4BC02B0106D8A00206015002103C
:10727200D8B41200DED74EC0F6FF4FC0F7FFF86A4F
:10728200BFC0D9FFC0C0DAFF070EF76403D0080001
:10729200F55005D0F6CFE1FFF7CFE2FFE750DF6E02
:1072A2004E4A4F2A0001BF4BC02B0106D8A002064E
:1072B20001500210D8B41200DED75A50D8A410D010
:1072C200000E6D6E000E696E160E6F6E9F0E6B6E67
:1072D2007B0E696E01D06D866DA6FDD7010E5A6ECA
:1072E2005A04D8B46DBA08D0000E686E000E696EEA
:1072F20069806988020E5A6E68B469A403D06894E2
:10730200DBEC2EF06DA202D0A19A120068B069A047
:1073120010D0A7EC31F0040E5A6E000E0401026F79
:10732200050E036F080E016F000E006F8C0E001326
:10733200689068B869A803D0C9EC2EF0689868BC58
:1073420069AC0FD0000E0D6E730E0C6E000E0E6E39
:10735200000E0F6E000E116E010E106EDCEC30F09E
:10736200689C68BA69AA02D035EC2FF068B269A2AB
:107372000FD07F0E0D6E0C68000E0E6E000E0F6E9B
:10738200000E116E010E106EDCEC30F0000E6A6E13
:10739200040E5A6002D0A19A120069A622D0000EF1
:1073A200186E68A61ED06CCF5BF068965BC017F0B3
:1073B200780E1716D8A403D035EC33F00ED0000E99
:1073C2000D6E720E0C6E5B0E0E6E000E0F6E000EC8
:1073D200116E000E106EDCEC30F0182A030E1864E9
:1073E200E0D7A19A1200456E09D0030E05D0070E10
:1073F20003D00B0E01D00F0EC26E0DD04550000A05
:10740200D8B4F5D7010AD8B4F0D7020AD8B4F1D764
:10741200070AD8B4F0D7C2B2FED7C3CF46F0476A44
:10742200C450472646504710D8B495D0000E106E6F
:107432007A0E116E440E126E46C009F047C00AF071
:107442006CEC2FF009C00DF00AC00EF00BC00FF06B
:107452008CEC36F00DC03FF00EC040F00FC041F092
:10746200000E2E6EC80E2F6EC20E306E000E1F6EF4
:10747200C80E206E420E216E3FC010F040C011F0C7
:1074820041C012F0F20E0D6E820E0E6E3F0E0F6EA6
:107492008CEC36F00DC01CF00EC01DF00FC01EF0BB
:1074A20061EC38F01CC02BF01DC02CF01EC02DF07A
:1074B20081EC3BF02BC042F02CC043F02DC044F0D5
:1074C20042C01CF043C01DF044C01EF09A0E1F6E55
:1074D200190E206E3F0E216E61EC38F01CC048F090
:1074E2001DC049F01EC04AF0000E016E7F0E026EF2
:1074F200430E036E48C004F049C005F04AC006F0CE
:10750200A2EC30F0D8B006D0000E486E7F0E496E65
:10751200430E4A6E000E376E7F0E386E430E396E82
:1075220048C03AF049C03BF04AC03CF0C6EC2FF0EC
:1075320037C048F038C049F039C04AF048C001F0BD
:1075420049C002F04AC003F0F4EC33F001C03DF050
:1075520002C03EF012003D683E6812006D9851BEB6
:107562004BD000019AAF29D0020E586E20EE01F0E6
:107572009F51D926A051DA22000EDF6E9FC0D9FF9B
:10758200A0C0DAFFC80EDF6E20EE01F05450D926FB
:107592005550DA22080EDF6E20EE02F05450D92642
:1075A2005550DA22200EDE6E050EDD6E54C0D9FF74
:1075B20055C0DAFFC80EDF6E120020EE01F0545003
:1075C200D9265550DA22080EDF6E20EE02F0545012
:1075D200D9265550DA22000EDE6E050EDD6E54C03D
:1075E200D9FF55C0DAFF8C0EDF6E9FC0D9FFA0C055
:1075F200DAFF840EDF6E120000019ABF120005014D
:1076020000AF54D05250065D53500759D8B004D041
:1076120006C552F007C553F0DBEC38F0010E586E88
:1076220020EE01F05450D9265550DA22080EDF6EB2
:1076320020EE02F05450D9265550DA22000EDE6EAA
:10764200050EDD6E54C0D9FF55C0DAFF800EDF6E25
:10765200000E0001C26F20EE01F05650D92657509D
:10766200DA22080EDF6E20EE02F05650D92657506D
:10767200DA22000EDE6E050EDD6E56C0D9FF57C04F
:10768200DAFF840EDF6E010EC26F20EE02F09F5110
:10769200D926A051DA22200EDE6E050EDD6E9FC0C5
:1076A200D9FFA0C0DAFFC80EDF6E1200020E586EBC
:1076B200000120EE01F09F51D926A051DA22000EDE
:1076C200DF6E9FC0D9FFA0C0DAFFC80EDF6E20EECA
:1076D20001F05450D9265550DA22080EDF6E20EE02
:1076E20002F05450D9265550DA22200EDE6E050ED5
:1076F200DD6E54C0D9FF55C0DAFFC80EDF6E12002E
:107702002DC031F0326A336A2C34313601E33280D3
:107712003150366E30C031F0326A336A2F3431362E
:1077220001E332803150356E3650D8B40AD035502C
:10773200365CD8B00DD03650355C316E180E3164DF
:1077420007D02EC02BF02FC02CF030C02DF012002D
:107752003550D8B40AD03650355CD8B00DD035503B
:10776200365C316E180E316407D02BC02BF02CC062
:107772002CF02DC02DF01200060E346E2DBE348E6C
:1077820030BE348C2C8EFF0E2B16FF0E2C16000EE4
:107792002D162F8EFF0E2E16FF0E2F16000E3016F0
:1077A2003550365CD8B01BD0D8902E362F363036B6
:1077B200350636503518D8B40DD0340634C031F001
:1077C200070E3116D8B406D0EFD7D8902D322C320E
:1077D2002B32362A35503618D8B41FD0F6D7365049
:1077E200355CD8B01AD0D8902B362C362D363606CA
:1077F20036503518D8B40DD0340634C031F0070EE7
:107802003116D8B406D0EFD7D89030322F322E327C
:10781200352A35503618D8A4F7D734AE0CD0FF0E1F
:107822002B1AFF0E2C1AFF0E2D1A010E2B26000EFC
:107832002C22000E2D2234AC0CD0FF0E2E1AFF0E7D
:107842002F1AFF0E301A010E2E26000E2F22000EC6
:107852003022000E346E2B502E262C502F222D500B
:10786200302230AE0ED0FF0E2E1AFF0E2F1AFF0E50
:10787200301A010E2E26000E2F22000E3022010E8B
:10788200346E2EC001F02FC002F030C003F036C0BB
:1078920004F034C005F086EC32F001C02BF002C0D7
:1078A2002CF003C02DF01200000E4D6E4D50D8A4E6
:1078B20008D09298928A8098809A080EE82EFED775
:1078C20003D09288929AF7D781B62AD04D500F0DE5
:1078D200600EF324D96E000EF420DA6EDF50D8A4C5
:1078E2001FD04D500F0D610EF324D96E000EF420FF
:1078F200DA6E050EDF640BD04D500F0D600EF324CF
:10790200D96E000EF420DA6E010EDF6E09D04D50F2
:107912000F0D610EF324D96E000EF420DA6EDF2A09
:1079220081A62AD04D500F0D600EF324D96E000EA1
:10793200F420DA6EDE04D8A41FD04D500F0D610E74
:10794200F324D96E000EF420DA6E050EDF640BD03C
:107952004D500F0D600EF324D96E000EF420DA6E36
:10796200000EDF6E09D04D500F0D610EF324D96E5B
:10797200000EF420DA6EDF2A4D500F0D600EF32454
:10798200D96E000EF420DA6E81A603D04C6A4C2A1E
:1079920001D04C6ADE504C18D8B40AD04D500F0DAD
:1079A200610EF324D96E000EF420DA6E000EDF6E43
:1079B20081BA2AD04D500F0D620EF324D96E000EFB
:1079C200F420DA6EDF50D8A41FD04D500F0D630E95
:1079D200F324D96E000EF420DA6E050EDF640BD0AC
:1079E2004D500F0D620EF324D96E000EF420DA6EA4
:1079F200010EDF6E09D04D500F0D630EF324D96EC8
:107A0200000EF420DA6EDF2A81AA2AD04D500F0D23
:107A1200620EF324D96E000EF420DA6EDE04D8A4CE
:107A22001FD04D500F0D630EF324D96E000EF420BB
:107A3200DA6E050EDF640BD04D500F0D620EF3248B
:107A4200D96E000EF420DA6E000EDF6E09D04D50B2
:107A52000F0D630EF324D96E000EF420DA6EDF2AC6
:107A62004D500F0D620EF324D96E000EF420DA6E23
:107A720081AA03D04C6A4C2A01D04C6ADE504C18C1
:107A8200D8B40AD04D500F0D630EF324D96E000EF8
:107A9200F420DA6E000EDF6E81BC2AD04D500F0D3D
:107AA200640EF324D96E000EF420DA6EDF50D8A4EF
:107AB2001FD04D500F0D650EF324D96E000EF42029
:107AC200DA6E050EDF640BD04D500F0D640EF324F9
:107AD200D96E000EF420DA6E010EDF6E09D04D5021
:107AE2000F0D650EF324D96E000EF420DA6EDF2A34
:107AF20081AC2AD04D500F0D640EF324D96E000EC6
:107B0200F420DA6EDE04D8A41FD04D500F0D650E9E
:107B1200F324D96E000EF420DA6E050EDF640BD06A
:107B22004D500F0D640EF324D96E000EF420DA6E60
:107B3200000EDF6E09D04D500F0D650EF324D96E85
:107B4200000EF420DA6EDF2A4D500F0D640EF3247E
:107B5200D96E000EF420DA6E81AC03D04C6A4C2A46
:107B620001D04C6ADE504C18D8B40AD04D500F0DDB
:107B7200650EF324D96E000EF420DA6E000EDF6E6D
:107B820081BE2AD04D500F0D660EF324D96E000E21
:107B9200F420DA6EDF50D8A41FD04D500F0D670EBF
:107BA200F324D96E000EF420DA6E050EDF640BD0DA
:107BB2004D500F0D660EF324D96E000EF420DA6ECE
:107BC200010EDF6E09D04D500F0D670EF324D96EF2
:107BD200000EF420DA6EDF2A81AE2AD04D500F0D4E
:107BE200660EF324D96E000EF420DA6EDE04D8A4F9
:107BF2001FD04D500F0D670EF324D96E000EF420E6
:107C0200DA6E050EDF640BD04D500F0D660EF324B5
:107C1200D96E000EF420DA6E000EDF6E09D04D50E0
:107C22000F0D670EF324D96E000EF420DA6EDF2AF0
:107C32004D500F0D660EF324D96E000EF420DA6E4D
:107C420081AE03D04C6A4C2A01D04C6ADE504C18EB
:107C5200D8B40AD04D500F0D670EF324D96E000E22
:107C6200F420DA6E000EDF6E81B82AD04D500F0D6F
:107C7200680EF324D96E000EF420DA6EDF50D8A419
:107C82001FD04D500F0D690EF324D96E000EF42053
:107C9200DA6E050EDF640BD04D500F0D680EF32423
:107CA200D96E000EF420DA6E010EDF6E09D04D504F
:107CB2000F0D690EF324D96E000EF420DA6EDF2A5E
:107CC20081A82AD04D500F0D680EF324D96E000EF4
:107CD200F420DA6EDE04D8A41FD04D500F0D690EC9
:107CE200F324D96E000EF420DA6E050EDF640BD099
:107CF2004D500F0D680EF324D96E000EF420DA6E8B
:107D0200000EDF6E09D04D500F0D690EF324D96EAF
:107D1200000EF420DA6EDF2A4D500F0D680EF324A8
:107D2200D96E000EF420DA6E81A803D04C6A4C2A78
:107D320001D04C6ADE504C18D8B40AD04D500F0D09
:107D4200690EF324D96E000EF420DA6E000EDF6E97
:107D52004D2A010E4D64AAD59288928A000EF4EC47
:107D620039F03DC06BF03EC06CF0010EF4EC39F01E
:107D72003DC06DF03EC06EF000016B2905E16C293B
:107D8200D8A402D0000E01D0010E6A6F030EF4ECEB
:107D920039F03DC07AF03EC07BF0040EF4EC39F0CD
:107DA2003DC07CF03EC07DF000017A2906E17B29CE
:107DB200D8A403D0000E796F1200010E796F120061
:107DC200001E35E0292CE2141F201A04E11D1608BA
:107DD200212215071B06091723241C0A19050B1853
:107DE20025260C0D11100E122743130F3637332F91
:107DF2002D42303438E52E314A2A284F513A3C3E42
:107E02004044FA7FD27F967F727F4E7FB87F127E88
:107E120009026900030100C03209040000020300E4
:107E22000003092111010001224A000705810340D4
:107E320000010705010340000109040100020300DB
:107E42000004092111010001224A000705820340B2
:107E520000010705020340000109040200020301B8
:107E62000105092111010001223F000705830308D2
:107E720000010705030308000105010905A1011519
:107E8200002501350045017501950D0509190129E6
:107E92000D81029503810105012507463B01750409
:107EA200950165140939814265009501810126FF1A
:107EB2000046FF0009300931093209357508950479
:107EC2008102C005010905A1011500250135004502
:107ED200017501950D05091901290D81029503818D
:107EE2000105012507463B01750495016514093911
:107EF200814265009501810126FF0046FF0009309D
:107F0200093109320935750895048102C005010954
:107F120006A101050719E029E7150025017501955C
:107F220008810295017508810395057501050819F7
:107F320001290591029501750391039506750815AE
:107F42000025650507190029658100C02403430047
:107F52003600340020004A006F007900730074007C
:107F6200690063006B00200050006F007200740013
:107F7200240343003600340020004A006F007900D9
:107F820073007400690063006B00200050006F00F2
:107F920072007400220343006F006D006D006F00D9
:107FA20064006F007200650020003600340020007B
:107FB2005500530042001A034300360034002000EB
:107FC2004B006500790062006F006100720064007E
:107FD2001603530069006D006F006E002000490017
:107FE2006E006E0073001201000200000008D80447
:0D7FF2007A000100010200010403090400EF
:020000040020DA
:08000000FFFFFFFFFFFFFFFF00
:020000040030CA
:0E000000240E3F1EFF8181FF0FC00FE00F4056
:00000001FF
