:020000040000FA
:0400000040EF34F0A9
:1067F6001200120012001200120035EC35F01200E1
:10680600698468986D82000E4E6E750E4D6E000E90
:106816004F6E000E506E000E526E000E516ECCEC96
:1068260035F01200000E4E6E740E4D6E000E4F6E59
:10683600000E506E000E526E000E516ECCEC35F00E
:106846006D92699401D0689468A41200FCD742C086
:1068560048F043C049F008D048C0D9FF49C0DAFF24
:1068660044C0DFFF484A492A4606D8A047064628BC
:10687600F3E14728D8B41200EFD701EE00F0820EFC
:10688600EE6AE806FDE100EE60F07A0EEE6AE806D2
:10689600FDE100EE01F0410EEE6AE806FDE1000EB4
:1068A600F86E000161EF35F0000E366E1FC0D9FF9D
:1068B60020C0DAFF000EDF6E040E1F18426E205055
:1068C600436E42C0D9FF43C0DAFF000EDF6E0001FF
:1068D600BDAF1200BD9F120070A017D031C0D9FF06
:1068E60032C0DAFF800EDE18D8A40ED01FC0D9FF42
:1068F60020C0DAFF840EDE18D8A406D031C0D9FF36
:1069060032C0DAFF8C0EDF6E7090689A12004C6E01
:10691600700E4C244A6E4B6A0F0E4B224AC0D9FFAA
:106926004BC0DAFF49C0DFFF49A405D0000E426E16
:106936004C5095EC36F049A21200010E426E4C50B6
:1069460095EC36F0120009D076EC38F01200E4EC43
:1069560038F0120052EC39F0120025EE04F0DECFCA
:1069660042F0DDCF43F04350000AD8A41200425053
:10697600000AD8B4E9D7010AD8B4E9D7030AD8A4DB
:106986001200E8D71E0E496E010E8AEC34F01E0E78
:10699600496E020E8AEC34F01E0E496E030E8AEC26
:1069A60034F0000E426E7A0E436E060E446E010EF1
:1069B600456E030E69EC37F042C0D6F043C0D7F0FF
:1069C6001200020E3618D8A403D032EC3AF01200A8
:1069D60057EC34F03450D8A419D020EE01F02F50E3
:1069E600D9263050DA22080EDF6E20EE02F02F5044
:1069F600D9263050DA22000EDE6E050EDD6E2FC06F
:106A0600D9FF30C0DAFF8C0EDF6E1200000E346E36
:106A160012001FC0D9FF20C0DAFFDFAE06D01FC0AC
:106A2600D9FF20C0DAFF000EDF6E000E376E000EB3
:106A3600366E000E2C6E000E2B6E000E2A6E14ECB7
:106A460038F0000E4E6E030E4D6E000E4F6E000EA9
:106A5600506E000E526E000E516ECCEC35F011ECFD
:106A66003EF01200000E426E4250020D000EF3245C
:106A7600D96E010EF420DA6E000EDF6E4250020D62
:106A8600010EF324D96E010EF420DA6E000EDF6ECD
:106A9600600E4224D96EDA6A000EDA22000EDF6E2C
:106AA600422A400E4264E0D7000E0001D86F000E65
:106AB600D96F000ED66F000ED76F12000E0EC16E84
:106AC600B60EC06E3F0E926E9368440E946E000E24
:106AD600956E000E966E000E806E000E816E000E94
:106AE600826E000E836E000E846EF19E00EC34F012
:106AF600DAEC36F026EC3CF0200E3818D8A403D099
:106B06008290828202D0828082921F0E3864F2D7EF
:106B16006DB2F0D7BCEC3CF00CEC36F09DEC3BF0E3
:106B260061EC3DF0E7D72A8E710E426E0F0E436E72
:106B3600000E456E000E446E000E476E020E466E47
:106B46002AEC34F03C0E426E000E436E000E456E8B
:106B5600000E446E000E476E010E466E2AEC34F0AF
:106B660002C541F04150D8A403D0100E386E120071
:106B7600200E386E000E4E6E010E4D6E410E4F6E9B
:106B8600000E506E000E526E010E516ECCEC35F0BA
:106B9600120017D0C5EC34F01200FCEC33F01200F2
:106BA600A6EC34F01200FFEC33F01200FDEC33F0EB
:106BB6001200FEEC33F01200FBEC33F0120000F092
:106BC60012004DC053F04EC054F05450000AD8B4D1
:106BD60004D07F0AD8A4120017D05350010AD8B4A3
:106BE600D9D7030AD8B4D9D7010AD8B4D9D7710AE4
:106BF600D8B4E5D7010AD8B4D6D7070AD8B4D9D7B6
:106C0600010AD8A41200D2D75350FF0AD8A4120002
:106C1600D3D7000E446E000E436E000E466E4650ED
:106C2600080DF3504424456E600E4524D96EDA6A89
:106C3600000EDA22DE04D8A409D0610E4524D96EEE
:106C4600DA6A000EDA22DE04D8B4432A462A070E90
:106C56004664E5D7010E43641BD0000E466E4650CF
:106C6600080DF3504424456E600E4524D96EDA6A49
:106C7600000EDA22000EDF6E610E4524D96EDA6A46
:106C8600000EDA22000EDF6E462A070E4664E7D7AC
:106C9600442A060E4464BFD712001FC0D9FF20C085
:106CA600DAFF000EDFBC010E446E040E1F1A080E3A
:106CB6003818D8A409D002C56EFF6E50D8B402D0D9
:106CC600100E01D0040E386E3604D8A428D020EE5B
:106CD60002F01F50D9262050DA22200EDE6E050E55
:106CE600DD6E1DEC3BF0020E3718D8A407D01FC08E
:106CF600D9FF20C0DAFF840EDF6E12004450D8A4FC
:106D060007D01FC0D9FF20C0DAFFC80EDF6E120001
:106D16001FC0D9FF20C0DAFF880EDF6E120057ECC5
:106D260034F01200466E000E476E040E486E425056
:106D3600020DF3CF43F04650040DF3504324446E46
:106D4600D8904436D8904434456E4540E8423F0BCF
:106D5600456E4550040DF3504726F450482247C06F
:106D6600D9FF48C0DAFFDF9E4250D8A407D046506C
:106D7600020DC20EF324D96E000E06D04650020D47
:106D86001F0EF324D96E000EF420DA6E47C0DEFF24
:106D960048C0DDFF47C0D9FF48C0DAFFDF9C20EEC0
:106DA60004F04750D9264850DA22DF8C1200000E34
:106DB6006A6E000E686E160E6F6E9F0E6B6E7B0E01
:106DC600696E6D8C000E6E6E710E426E0F0E436E06
:106DD600000E456E000E446E000E476E020E466EA5
:106DE6002AEC34F06D9C000E4A6E4A50040D000EDB
:106DF600F324D96E040EF420DA6EDE6ADE6ADE6AE9
:106E0600DD6A4A2A0F0E4A64F0D7160E706E01D05C
:106E1600689668B6FDD7000E2A6E000E0001BD6F9B
:106E2600000EBF6F000EBE6F6D98080E1F6E040E2B
:106E3600206E000E416E000E386E1200000E050127
:106E4600206F000E216F2DD02A8E3504D8A434D0A1
:106E5600208332D02A8E30D02A8E04BF0AD0045125
:106E66000F0B426E4250020DC20EF324D96E000E75
:106E760009D004510F0B426E4250020D1F0EF3242F
:106E8600D96E000EF420DA6EDECF43F0DDCF44F08B
:106E960043C0D9FF44C0DAFFDFA40ED0010E206F35
:106EA6000BD000511F0B000AD8B4CED7010AD8B4B4
:106EB600D1D7030AD8B4D0D72AAE1200200E276E37
:106EC600050E286E2A80020E2B6E1200466E425068
:106ED600D8B407D04650020D1F0EF324D96E000E0B
:106EE60006D04650020DC20EF324D96E000EF420D1
:106EF600DA6EDECF47F0DDCF48F020EE02F04750E5
:106F0600D9264850DA2243C0DEFF44C0DDFF20EE1A
:106F160001F04750D9264850DA2245C0DFFF47C066
:106F2600D9FF48C0DAFF400EDF1647C0D9FF48C078
:106F3600DAFF880EDF124250D8B407D04650020D51
:106F46001F0EF324D96E000E06D04650020DC20E57
:106F5600F324D96E000EF420DA6E040EDF1A47C051
:106F660042F048C043F012003BC055F0FD0E5516E6
:106F7600D8A44FD03BC055F0D89055323F0E551689
:106F86005550040D000EF324316E040EF420326EBB
:106F960031C02FF032C030F0040E2F1A31C0D9FFA5
:106FA60032C0DAFFDF30E8320F0B0D0AD8A42ED03C
:106FB60020EE02F03150D9263250DA22200EDE18A9
:106FC60022E1050EDE18D8A41ED020EE02F03150C4
:106FD600D9263250DA22000EDE6E050EDD6E000E68
:106FE600576E200E5724D96EDA6A050EDA22000E85
:106FF6005724E16EE26A050EE222DFCFE7FF572A49
:10700600070E5764EED70CEC35F01200E4EC34F0C2
:1070160012003B50FD0B040AD8A4120050EC36F0C7
:10702600120005010039E832030B0009D8A412004A
:1070360039D02A8E080E386E1200C1EC39F01200D3
:1070460096EC35F01200410E276E000E286E2A804F
:10705600010E2B6E2A8E120021EC37F01200A5ECE1
:107066003AF012003C0E0425276E286A000E2822EC
:10707600EED72A8E3C0E0425D96EDA6A000EDA2285
:1070860002C5DFFF1200000E4E6E020E4D6E000EA0
:107096004F6E000E506E000E526E000E516ECCEC0E
:1070A60035F012000151000AD8B4D6D7010AD8B477
:1070B600D6D7020AD8B4D3D7060AD8B4BAD7030AA1
:1070C600D8B4BBD7010AD8B4DED70F0AD8B4BBD719
:1070D600010AD8B4B5D7030AD8B4C4D7010AD8B4BC
:1070E600C8D7070A1200050100511F0BE806D8A4ED
:1070F60012000451D8A41200060E0119D8B41CD0EF
:1071060025D04104D8A422D0240E276E7E0E286EE8
:10711600000E2C6E090E2B6EC00E0CD04104D8A4A6
:1071260015D0C50E276E7E0E286E000E2C6E4A0EEA
:10713600F2D7800E2A6E0AD00351210AD8B4E1D7BD
:10714600030AD8B4EBD7010AD8B4F3D70039E8322A
:10715600030BE806D8A4120020D0400E276E000EBE
:10716600286E000E2C6E010E2B6EC10E2A6E1200BA
:10717600800E2A6E03C540F012003F0E276E000EE9
:10718600286E000E2C6E010E2B6E810E2A6E1200DA
:10719600800E2A6E02C53FF012000151010AD8B4D2
:1071A6001200030AD8B4D9D7010AD8B4E6D70A0A16
:1071B600D8B41200030AD8B4DBD7010AD8A4120047
:1071C600E7D7050100511F0BE806D8A412000405F5
:1071D600D8A41200060E0119D8B41CD025D041043B
:1071E600D8A422D0240E276E7E0E286E000E2C6E9A
:1071F600090E2B6EC00E0CD04104D8A415D07B0E00
:10720600276E7E0E286E000E2C6E4A0EF2D7800E6A
:107216002A6E0AD00351210AD8B4E1D7030AD8B49A
:10722600EBD7010AD8B4F3D70039E832030BE806E6
:10723600D8A4120020D03E0E276E000E286E000E37
:107246002C6E010E2B6EC10E2A6E1200800E2A6E57
:1072560003C53EF012003D0E276E000E286E000E8E
:107266002C6E010E2B6E810E2A6E1200800E2A6E77
:1072760002C53DF012000151010AD8B41200030AFA
:10728600D8B4D9D7010AD8B4E6D70A0AD8B41200B6
:10729600030AD8B4DBD7010AD8A41200E7D7050140
:1072A60000511F0BE806D8A41200020E0419D8A438
:1072B6001200060E0119D8B41CD025D04104D8A45A
:1072C60022D0240E276E7E0E286E000E2C6E090E1E
:1072D6002B6EC00E0CD04104D8A415D00F0E276E0D
:1072E6007F0E286E000E2C6E3F0EF2D7800E2A6E91
:1072F6000AD00351210AD8B4E1D7030AD8B4EBD790
:10730600010AD8B4F3D70039E832030BE806D8A44B
:10731600120020D03A0E276E000E286E000E2C6E3C
:10732600010E2B6EC10E2A6E1200800E2A6E03C548
:107336003AF01200390E276E000E286E000E2C6EE3
:10734600010E2B6E810E2A6E1200800E2A6E02C569
:1073560039F012000151010AD8B41200030AD8B458
:10736600D9D7010AD8B4E6D70A0AD8B41200030A54
:10737600D8B4DBD7010AD8A41200E7D7800E0501DE
:107386000019D8A41200C00E2A6E5ED0E80E276E31
:107396007F0E286E000E2C6E120E2B6E12000251FE
:1073A600020D100EF324F66E7E0EF420F76E090021
:1073B600F5CF27F00A00F5CF28F0020E2724426EFB
:1073C600000E2820436E42C0F6FF43C0F7FFF86A5E
:1073D600070EF76407D00900F5CF2BF00900F5CFAB
:1073E6002CF008D0F6CFE9FFF7CFEAFFEECF2BF06F
:1073F600EECF2CF01200070E026123D00251020DCF
:10740600040EF324F66E7E0EF420F76E0900F5CF17
:1074160027F00A00F5CF28F027C0F6FF28C0F7FFAF
:10742600F86A070EF76403D00800F55005D0F6CFCA
:10743600E9FFF7CFEAFFEF50426E42502B6E2C6AFF
:107446001200000E2A6E12000351010AD8B49ED70C
:10745600030AD8B4A4D7010AD8B4CDD7F2D720EE00
:1074660001F03150D9263250DA22DF50436E4350B4
:107476000001BE5D000EBF59D8B003D0BEC043F0B8
:1074860007D04350BE5DBE6FBF51D8A0BF05BF6FCA
:10749600000E426E0FD0200E4224D96EDA6A050E17
:1074A600DA22BAC0E1FFBBC0E2FFDFCFE7FFBA4B8B
:1074B600BB2B422A4350425CD8A0EDD7BE51BF1128
:1074C600D8B426D020EE01F02F50D9263050DA223B
:1074D600080EDF6E20EE02F02F50D9263050DA2249
:1074E600200EDE6E050EDD6E31C0D9FF32C0DAFF2A
:1074F600DFBC07D02FC0D9FF30C0DAFFC80EDF6E61
:1075060012002FC0D9FF30C0DAFF880EDF6E1200DE
:1075160020EE01F02F50D9263050DA22080EDF6E09
:1075260020EE02F02F50D9263050DA22000EDE6E01
:10753600050EDD6E2FC0D9FF30C0DAFF840EDF6E78
:10754600BD9F120005010205D8A40ED000511F0BE5
:107556000009D8A409D02A8E030E0119D8A402D096
:10756600010E01D0000E356E0251D8A41200005152
:107576001F0B020AD8A4120004510F0B0009D8B43D
:1075860012002A8E04BF0AD004510F0B426E4250DD
:10759600020DC20EF324D96E000E09D004510F0B52
:1075A600426E4250020D1F0EF324D96E000EF420D7
:1075B600DA6EDECF46F0DDCF47F0030E0119D8A410
:1075C60007D046C0D9FF47C0DAFF840EDF6E12002F
:1075D60004510F0B426E436A700E4224446E0F0E26
:1075E6004320456E44C0D9FF45C0DAFFFE0EDE16C5
:1075F600FF0EDD1604AF0FD046C0D9FF47C0DAFF35
:10760600000EDF6E040E461A46C0D9FF47C0DAFFE9
:10761600400EDF6E120046C0D9FF47C0DAFF880E63
:10762600DF6E040E461A46C0D9FF47C0DAFFC80E01
:10763600DF6E12002C5013E1080E2B5CD8B00FD071
:107646002BC042F02CC043F03750D8A402D0010E14
:1076560004D03704D8A407D0020E376E04D0000E2B
:10766600436E080E426E1FC0D9FF20C0DAFFDF92BC
:107676001FC0D9FF20C0DAFFDF901FC0D9FF20C08E
:10768600DAFF4350DF1220EE01F01F50D9262050BA
:10769600DA2242C0DFFF42502B5C2B6E43502C583F
:1076A6002C6E200E2D6E050E2E6E2AA01DD03DD0FE
:1076B60027C0F6FF28C0F7FFF86A2DC0D9FF2EC0F5
:1076C600DAFF070EF76403D00800F55005D0F6CFB1
:1076D600E9FFF7CFEAFFEF50DF6E274A282A2D4A47
:1076E6002E2A4206D8A0430642504310D8B41200B0
:1076F600DFD727C0F6FF28C0F7FFF86A2DC0D9FFED
:107706002EC0DAFF070EF76403D00800F55005D047
:10771600F6CFE9FFF7CFEAFFEF50DF6E274A282AB8
:107726002D4A2E2A4206D8A0430642504310D8B40A
:107736001200DFD7000E446E600E4424D96EDA6A5A
:10774600000EDA22DE04D8A42AD04450020D000E20
:10775600F324D96E010EF420DA6EDF50D8A41FD0C0
:107766004450020D010EF324D96E010EF420DA6E98
:10777600050EDF640BD04450020D000EF324D96EC3
:10778600010EF420DA6E010EDF6E09D04450020DB0
:10779600010EF324D96E010EF420DA6EDF2A600E94
:1077A6004424D96EDA6A000EDA22DF50D8A42AD031
:1077B6004450020D000EF324D96E010EF420DA6E49
:1077C600DE04D8A41FD04450020D010EF324D96E56
:1077D600010EF420DA6E050EDF640BD04450020D64
:1077E600000EF324D96E010EF420DA6E000EDF6E61
:1077F60009D04450020D010EF324D96E010EF42077
:10780600DA6EDF2A600E4424D96EDA6A000EDA22B6
:107816004450020D000EF324E16E010EF420E26ED8
:10782600DE50E618D8A40AD04450020D010EF32407
:10783600D96E010EF420DA6E000EDF6E442A400E79
:1078460044647AD712003850D8A410D0000E6D6E5A
:10785600000E696E160E6F6E9F0E6B6E7B0E696E56
:1078660001D06D866DA6FDD7010E386E3804D8B4EA
:107876006DBA08D0000E686E000E696E6980698860
:10788600020E386E68B469A403D0689415EC34F01F
:107896006DA202D0A19A120068B069A010D0DAECED
:1078A60036F0040E386E000E0401026F050E036FEB
:1078B600080E016F000E006F8C0E0013689068B8FA
:1078C60069A803D003EC34F0689868BC69AC0FD0A3
:1078D600000E4E6E730E4D6E000E4F6E000E506E05
:1078E600000E526E010E516ECCEC35F0689C68BAF3
:1078F60069AA02D06FEC34F068B269A20FD07F0E8D
:107906004E6E4D68000E4F6E000E506E000E526E9B
:10791600010E516ECCEC35F0000E6A6E040E386026
:1079260002D0A19A120069A622D0000E596E68A64E
:107936001ED06CCF3BF068963BC058F0780E5816B8
:10794600D8A403D0B7EC37F00ED0000E4E6E720EF0
:107956004D6E3B0E4F6E000E506E000E526E000EB8
:10796600516ECCEC35F0592A030E5964E0D7A19A32
:107976001200000E456E4550D8A402D0959001D055
:1079860095804504D8A402D0959201D09582020E26
:107996004518D8A402D0959401D09584030E4518B5
:1079A600D8A402D0959601D09586040E4518D8A481
:1079B60002D0959801D09588050E4518D8A402D016
:1079C600959A01D0958A060E4518D8A402D0959CA2
:1079D60001D0958C070E4518D8A402D0959E01D0EB
:1079E600958E080EE82EFED7000E446E4450D8A49D
:1079F60004D0000E81B0010E436E4404D8A404D016
:107A0600000E81B2010E436E020E4418D8A404D0B3
:107A1600000E81B4010E436E030E4418D8A404D0A0
:107A2600000E81B6010E436E040E4418D8A404D08D
:107A3600000E81B8010E436E050E4418D8A404D07A
:107A4600000E81BA010E436E060E4418D8A404D067
:107A5600000E81BC010E436E070E4418D8A404D054
:107A6600000E81BE010E436E4550080DF3504424AE
:107A7600426E4350D8A408D0600E4224D96EDA6A0A
:107A8600000EDA22010E07D0600E4224D96EDA6AA1
:107A9600000EDA22000EDF6E442A070E4464A6D7D3
:107AA600452A070E456467D782B404D0010E00014B
:107AB600A06F1200000E0001A06F1200000E5C6E97
:107AC600000E5B6E000E5A6E000E596E000E5E6E54
:107AD600000E5D6ED8905D34D96E5E34DA6E4B0E54
:107AE600D926000EDA22000EDE6E000EDD6E5D4A2D
:107AF6005E2A5E5004E1060E5D5CD8A0EBD700015D
:107B0600D851D911D8B40ED0D8C0D9FFD9C0DAFF10
:107B1600DFAE03D0496A492A01D0496A4950576EF7
:107B2600586A04D0000E586E000E576E5750581003
:107B3600D8A41200000E5E6E000E5D6ED8905D3405
:107B4600D96E5E34DA6E000ED926010EDA22DE0414
:107B5600D8A43BD05C5039E1060E5B5CD8B035D07A
:107B6600020E5D185E10D8A402D059802ED0050EE4
:107B76005D185E10D8A402D0598427D00B0E5D186C
:107B86005E10D8A402D0598220D0340E5D185E1043
:107B9600D8A402D0598A19D0C30E5D24F66E7D0E84
:107BA6005E20F76E0800F550496E4A6AD8905B343D
:107BB600D96E5C34DA6E4B0ED926000EDA2249C035
:107BC600DEFF4AC0DDFF5B4A5C2A5D4A5E2A5E50E4
:107BD60004E1410E5D5CD8A0B1D759C07BF6000E1A
:107BE60006017C6F4BC07DF64DC07EF64FC07FF61A
:107BF60051C080F653C081F655C082F6010E426E22
:107C06007B0E436E060E446E080E456E030E69EC3F
:107C160037F042C0D8F043C0D9F012006D982ABEA2
:107C26004BD00001BDAF29D0020E366E20EE01F01A
:107C36001F50D9262050DA22000EDF6E1FC0D9FF52
:107C460020C0DAFFC80EDF6E20EE01F02F50D926D5
:107C56003050DA22080EDF6E20EE02F02F50D926C1
:107C66003050DA22200EDE6E050EDD6E2FC0D9FFF3
:107C760030C0DAFFC80EDF6E120020EE01F02F5082
:107C8600D9263050DA22080EDF6E20EE02F02F5091
:107C9600D9263050DA22000EDE6E050EDD6E2FC0BC
:107CA600D9FF30C0DAFF8C0EDF6E1FC0D9FF20C0AF
:107CB600DAFF840EDF6E12000001BDBF120005015F
:107CC60000AF53D02B50065D2C500759D8B004D0C6
:107CD60006C52BF007C52CF01DEC3BF0010E366EE9
:107CE60020EE01F02F50D9263050DA22080EDF6E32
:107CF60020EE02F02F50D9263050DA22000EDE6E2A
:107D0600050EDD6E2FC0D9FF30C0DAFF800EDF6EA4
:107D1600000E346E20EE01F03150D9263250DA22B0
:107D2600080EDF6E20EE02F03150D9263250DA22EC
:107D3600000EDE6E050EDD6E31C0D9FF32C0DAFFF1
:107D4600840EDF6E010E346E20EE02F01F50D9262F
:107D56002050DA22200EDE6E050EDD6E1FC0D9FF22
:107D660020C0DAFFC80EDF6E1200020E366E20EE5D
:107D760001F01F50D9262050DA22000EDF6E1FC0F8
:107D8600D9FF20C0DAFFC80EDF6E20EE01F02F50BB
:107D9600D9263050DA22080EDF6E20EE02F02F5080
:107DA600D9263050DA22200EDE6E050EDD6E2FC08B
:107DB600D9FF30C0DAFFC80EDF6E1200001E35E0B4
:107DC600292CE2141F201A04E11D1608212215078A
:107DD6001B06091723241C0A19050B1825260C0D4A
:107DE60011100E122743130F3637332F2D4230341E
:107DF60038E52E314A2A284F513A3C3E4044FA7F14
:107E0600D27F967F727F4E7FB87F127E090269000D
:107E1600030100C032090400000203000003092127
:107E260011010001224A00070581034000010705F0
:107E360001034000010904010002030000040921B6
:107E460011010001224A00070582034000010705CF
:107E56000203400001090402000203010105092191
:107E660011010001223F00070583030800010705F1
:107E7600030308000105010905A1011500250135C7
:107E86000045017501950D05091901290D81029518
:107E960003810105012507463B017504950165141B
:107EA6000939814265009501810126FF0046FF00E0
:107EB6000930093109320935750895048102C00572
:107EC600010905A10115002501350045017501953A
:107ED6000D05091901290D81029503810105012569
:107EE60007463B0175049501651409398142650011
:107EF6009501810126FF0046FF000930093109324C
:107F06000935750895048102C005010906A1010518
:107F16000719E029E71500250175019508810295E5
:107F26000175088103950575010508190129059153
:107F360002950175039103950675081500256505DB
:107F460007190029658100C0240343003600340068
:107F560020004A006F007900730074006900630016
:107F66006B00200050006F00720074002403430071
:107F76003600340020004A006F0079007300740058
:107F8600690063006B00200050006F0072007400EF
:107F9600220343006F006D006D006F0064006F00E8
:107FA60072006500200036003400200055005300A2
:107FB60042001A0343003600340020004B006500DF
:107FC600790062006F0061007200640016035300BE
:107FD60069006D006F006E00200049006E006E00A3
:107FE60073001201000200000008D80478000100A6
:097FF6000102000104030904006A
:020000040020DA
:08000000FFFFFFFFFFFFFFFF00
:020000040030CA
:0E000000240E3F1EFF8181FF0FC00FE00F4056
:00000001FF
