:0400000068EF2BF08A
:10561E0012001200120012001200E3EC31F07CECCA
:10562E002CF01200698468986D82000E0D6E750E56
:10563E000C6E000E0E6E000E0F6E000E116E000E32
:10564E00106E21EC2DF01200015002100310D8B490
:10565E0006D0000E011A000E021A800E031A01C0A7
:10566E0001F002C002F003C003F01200000E0D6E36
:10567E00740E0C6E000E0E6E000E0F6E000E116E7E
:10568E00000E106E21EC2DF06D92699401D068948D
:10569E0068A41200FCD701C007F002C008F008D0C1
:1056AE0007C0D9FF08C0DAFF03C0DFFF074A082A88
:1056BE000506D8A006060528F3E10628D8B4120080
:1056CE00EFD701EE00F0C30EEE6AE806FDE100EE44
:1056DE0060F0620EEE6AE806FDE100EE48F0180E8C
:1056EE00EE6AE806FDE1000EF86E0001E6EF2CF022
:1056FE00000E5A6E48C0D9FF49C0DAFF000EDF6EA9
:10570E00040E4818016E4950026E01C0D9FF02C046
:10571E00DAFF000EDF6E00019AAF12009A9F1200A0
:10572E0070A017D058C0D9FF59C0DAFF800EDE180E
:10573E00D8A40ED048C0D9FF49C0DAFF840EDE18B7
:10574E00D8A406D058C0D9FF59C0DAFF8C0EDF6E30
:10575E007090689A1200000E0C6E0AAE06D0096C9C
:10576E000A1ED8B00A2A010E0C6E09C001F00AC03A
:10577E0002F0036A8E0E046E0CC005F014EC2FF0CE
:10578E0001C009F002C00AF003C00BF012000B6E4C
:10579E000B50010D700EF324096E0F0EF4200A6EDD
:1057AE0009C0D9FF0AC0DAFF08C0DFFF08A405D080
:1057BE00000E016E0B50A6EC2DF008A21200010E89
:1057CE00016E0B50A6EC2DF0120009D095EC30F0C6
:1057DE00120004EC31F0120073EC31F0120025EEE1
:1057EE0004F0DECF01F0DDCF02F00250000AD8A4A3
:1057FE0012000150000AD8B4E9D7010AD8B4E9D78B
:10580E00030AD8A41200E8D71E0E086E010ECEECC5
:10581E002BF01E0E086E020ECEEC2BF01E0E086E36
:10582E00030ECEEC2BF0000E016E7A0E026E060EFB
:10583E00036E010E046E030EC6EC2EF001C0B3F023
:10584E0002C0B4F01200020E5A18D8A403D01AECFB
:10585E0035F012007FEC2BF00001BA51D8A419D00C
:10586E0020EE01F05650D9265750DA22080EDF6E80
:10587E0020EE02F05650D9265750DA22000EDE6E78
:10588E00050EDD6E56C0D9FF57C0DAFF8C0EDF6EE7
:10589E001200000EBA6F120048C0D9FF49C0DAFFDD
:1058AE00DFAE06D048C0D9FF49C0DAFF000EDF6E6A
:1058BE00000E5B6E000E5A6E000E556E000E546E8C
:1058CE00000E536E29EC30F0000E0D6E030E0C6EB2
:1058DE00000E0E6E000E0F6E000E116E000E106E8C
:1058EE0021EC2DF0F4EC39F01200000E016E400E9A
:1058FE00016401D024D00150020D000EF324D96EA4
:10590E00010EF420DA6E000EDF6E0150020D010E54
:10591E00F326000EF422000EF324D96E010EF420AD
:10592E00DA6E000EDF6E0150010D820EF324D96E79
:10593E00010EF420DA6E000EDF6E012AD8D7000EAB
:10594E000001B56F000EB66F000EB36F000EB46F90
:10595E001200538E710E016E0F0E026E000E046E4B
:10596E00000E036E000E066E020E056E52EC2BF04C
:10597E005E0E016E000E026E000E046E000E036EC1
:10598E00000E066E010E056E52EC2BF002C55FF096
:10599E005F50D8A403D0100E5C6E1200200E5C6E09
:1059AE00000E0D6E010E0C6E5F0E0E6E000E0F6E63
:1059BE00000E116E010E106E21EC2DF012000E0E67
:1059CE00C16EB60EC06E3F0E926E9368440E946E0C
:1059DE00000E956E000E966E000E806E000E816E9D
:1059EE00000E826E000E836E000E846EF19E14EC1D
:1059FE002BF033EC2EF09BEC36F0200E5C18D8A476
:105A0E0003D08290828202D0828082921F0E5C64CA
:105A1E00F2D76DB2F0D79BEC3BF084EC38F06BEC28
:105A2E002FF033EC37F0C8EC32F03CEC33F0D7EC1F
:105A3E0037F0E1D717D00BEC2CF0120010EC2BF056
:105A4E001200ECEC2BF0120013EC2BF0120011EC08
:105A5E002BF0120012EC2BF012000FEC2BF01200B8
:105A6E0000F012000CC012F00DC013F01350000A1B
:105A7E00D8B404D07F0AD8A4120017D01250010A4D
:105A8E00D8B4D9D7030AD8B4D9D7010AD8B4D9D73C
:105A9E00710AD8B4E5D7010AD8B4D6D7070AD8B454
:105AAE00D9D7010AD8A41200D2D71250FF0AD8A40F
:105ABE001200D3D748C0D9FF49C0DAFF000EDFBCB1
:105ACE00010E056E040E481A080E5C18D8A409D0F3
:105ADE0002C56EFF6E50D8B402D0100E01D0040E67
:105AEE005C6E5A04D8A428D020EE02F04850D92675
:105AFE004950DA22200EDE6E050EDD6E10EC36F009
:105B0E00020E5B18D8A407D048C0D9FF49C0DAFFEF
:105B1E00840EDF6E12000550D8A407D048C0D9FFFE
:105B2E0049C0DAFFC80EDF6E120048C0D9FF49C067
:105B3E00DAFF880EDF6E12007FEC2BF01200056E7E
:105B4E00000E066E040E076E0150020DF3CF02F02A
:105B5E000550040DF3500224036ED8900336D890EE
:105B6E000334046E0440E8423F0B046E0450040DEF
:105B7E00F3500626F450072206C0D9FF07C0DAFFFD
:105B8E00DF9E0150D8A407D00550020D9F0EF324BE
:105B9E00D96E000E06D00550020D480EF324D96EB4
:105BAE00000EF420DA6E06C0DEFF07C0DDFF06C071
:105BBE00D9FF07C0DAFFDF9C20EE04F00650D9268D
:105BCE000750DA22DF8C120003AE16D001C007F0A8
:105BDE0002C008F003C009F0071E081E091E072A9E
:105BEE00000E08220922000E0724016E000E082066
:105BFE00026E800E0920036E06AE16D004C007F0AA
:105C0E0005C008F006C009F0071E081E091E072A67
:105C1E00000E08220922000E0724046E000E082032
:105C2E00056E800E0920066E000E011A000E021A75
:105C3E00800E031A000E041A000E051A800E061AA4
:105C4E000450015C0550025806500358D8B002D0DB
:105C5E00D8901200D8801200000E6A6E000E686E88
:105C6E00160E6F6E9F0E6B6E7B0E696E6D8C000E38
:105C7E006E6E710E016E0F0E026E000E046E000E31
:105C8E00036E000E066E020E056E52EC2BF06D9C2E
:105C9E00000E096E0F0E096401D00ED00950040DCE
:105CAE00000EF324D96E040EF420DA6EDE6ADE6A7C
:105CBE00DE6ADD6A092AEED7160E706E01D068967E
:105CCE0068B6FDD7000E536E000E00019A6F000EDF
:105CDE009C6F000E9B6F6D98080E486E040E496EF9
:105CEE00000E5F6E000E5C6E1200000E0501206F3E
:105CFE00000E216F2FD0538E0001BB05D8A435D0D6
:105D0E000501208332D0538E30D0538E04BF0AD07B
:105D1E0004510F0B016E0150020D9F0EF324D96E2C
:105D2E00000E09D004510F0B016E0150020D480EEA
:105D3E00F324D96E000EF420DA6EDECF02F0DDCF42
:105D4E0003F002C0D9FF03C0DAFFDFA40ED0010EAC
:105D5E00206F0BD000511F0B000AD8B4CCD7010A0C
:105D6E00D8B4D1D7030AD8B4D0D753AE1200200E70
:105D7E00506E050E516E5380020E546E1200056E5B
:105D8E000150D8B407D00550020D480EF324D96E39
:105D9E00000E06D00550020D9F0EF324D96E000E94
:105DAE00F420DA6EDECF06F0DDCF07F020EE02F043
:105DBE000650D9260750DA2202C0DEFF03C0DDFFEF
:105DCE0020EE01F00650D9260750DA2204C0DFFF7C
:105DDE0006C0D9FF07C0DAFF400EDF1606C0D9FF96
:105DEE0007C0DAFF880EDF120150D8B407D0055075
:105DFE00020D480EF324D96E000E06D00550020D8A
:105E0E009F0EF324D96E000EF420DA6E040EDF1A04
:105E1E0006C001F007C002F012000450D8B405D03D
:105E2E00015002100310D8A40CD0000E016E000E0B
:105E3E00026E000E036E1200042AD8900332023254
:105E4E000132000E0114066E000E0214076EFE0ED5
:105E5E000314086E065007100810D8B40CD0ECD7F7
:105E6E00042A010E0126000E0222000E0322D890F3
:105E7E00033202320132000E0114066E000E0214BD
:105E8E00076EFF0E0314086E065007100810D8B4E4
:105E9E0006D0E6D70406D89001360236033602BE87
:105EAE0003D0020E0460F6D704A0029ED8900432EE
:105EBE00045003120550D8A4038E01C001F002C095
:105ECE0002F003C003F01200000E056E060E05640C
:105EDE0001D01200000E046E000E076E070E07644E
:105EEE0001D022D00750080DF3500524066E06503F
:105EFE00010D820EF324D96E010EF420DA6EDE044B
:105F0E00D8A410D00650016E026A010E0126000EB2
:105F1E000222820E0124D96E010E0220DA6EDE04F8
:105F2E00D8B4042A072ADAD7010E046426D0000E4C
:105F3E00076E070E076401D020D00750080DF350EE
:105F4E000524066E0650010D820EF324D96E010E45
:105F5E00F420DA6E000EDF6E0650016E026A010E3C
:105F6E000126000E0222820E0124D96E010E02209D
:105F7E00DA6E000EDF6E072ADCD7052AA7D75DC0C2
:105F8E0014F0FD0E1416D8A455D05DC014F0D890A0
:105F9E0014323F0E14161450040D000EF324586ED6
:105FAE00040EF420596E58C056F059C057F0040E26
:105FBE00561A58C0D9FF59C0DAFFDF30E8320F0B3E
:105FCE000D0AD8A434D020EE02F05850D9265950DC
:105FDE00DA22200EDE1828E1050EDE18D8A424D011
:105FEE0020EE02F05850D9265950DA22000EDE6EFD
:105FFE00050EDD6E000E166E070E166401D014D05F
:10600E001650010D200EF324D96E050EF420DA6E13
:10601E001650010D000EF324E16E050EF420E26E13
:10602E00DFCFE7FF162AE8D753EC2CF012002AEC4C
:10603E002CF012005D50FD0B040AD8A4120061EC86
:10604E002DF0120005010039E832030B0009D8A427
:10605E00120042D0538E080E5C6E1200B0EC33F07C
:10606E001200B0EC2CF012005F0E506E000E516E4E
:10607E005380010E546E538E12007CEC2EF01200E3
:10608E0095EC35F0120005010451010D5E0EF3245E
:10609E00506E000EF420516E5380010E546E538ECE
:1060AE001200538E0451010D5E0EF324D96E000EB4
:1060BE00F420DA6E02C5DFFF1200000E0D6E020E26
:1060CE000C6E000E0E6E000E0F6E000E116E000E98
:1060DE00106E21EC2DF0120005010151000AD8B40A
:1060EE00CCD7010AD8B4CCD7020AD8B4C9D7060A7D
:1060FE00D8B4B0D7030AD8B4B1D7010AD8B4DDD713
:10610E000F0AD8B4B1D7010AD8B4ABD7030AD8B4A2
:10611E00BAD7010AD8B4C5D7070A12000501005133
:10612E001F0BE806D8A412000451D8A41200060EC4
:10613E000119D8B41DD026D05F04D8A423D0240EC4
:10614E00506E7E0E516E000E556E090E0DD0C00EA5
:10615E00536E18D05F04D8A415D0C50E506E7E0EA7
:10616E00516E000E556E4A0E546EF1D7800EF0D75A
:10617E000351210AD8B4E0D7030AD8B4EBD7010AE9
:10618E00D8B4F4D70039E832030BE806D8A41200CD
:10619E0020D0C10E506E000E516E000E556E010EC7
:1061AE00546EC10E536E1200800E536E03C5C1F0B5
:1061BE001200C00E506E000E516E000E556E010E86
:1061CE00546E810E536E1200800E536E02C5C0F0D7
:1061DE0012000151010AD8B41200030AD8B4D9D75B
:1061EE00010AD8B4E6D70A0AD8B41200030AD8B402
:1061FE00DBD7010AD8A41200E7D7050100511F0B07
:10620E00E806D8A412000405D8A41200060E01193F
:10621E00D8B41DD026D05F04D8A423D0240E506E3F
:10622E007E0E516E000E556E090E0DD0C00E536EC1
:10623E0018D05F04D8A415D07B0E506E7E0E516E12
:10624E00000E556E4A0E546EF1D7800EF0D70351E4
:10625E00210AD8B4E0D7030AD8B4EBD7010AD8B4D0
:10626E00F4D70039E832030BE806D8A4120020D088
:10627E00BF0E506E000E516E000E556E010E546E16
:10628E00C10E536E1200800E536E03C5BFF0120086
:10629E00BE0E506E000E516E000E556E010E546EF7
:1062AE00810E536E1200800E536E02C5BEF01200A8
:1062BE000151010AD8B41200030AD8B4D9D7010A81
:1062CE00D8B4E6D70A0AD8B41200030AD8B4DBD77A
:1062DE00010AD8A41200E7D7050100511F0BE806EA
:1062EE00D8A41200020E0419D8A41200060E011929
:1062FE00D8B41DD026D05F04D8A423D0240E506E5F
:10630E007E0E516E000E556E090E0DD0C00E536EE0
:10631E0018D05F04D8A415D00F0E506E7F0E516E9C
:10632E00000E556E3F0E546EF1D7800EF0D703510E
:10633E00210AD8B4E0D7030AD8B4EBD7010AD8B4EF
:10634E00F4D70039E832030BE806D8A4120020D0A7
:10635E00BD0E506E000E516E000E556E010E546E37
:10636E00C10E536E1200800E536E03C5BDF01200A7
:10637E00BC0E506E000E516E000E556E010E546E18
:10638E00810E536E1200800E536E02C5BCF01200C9
:10639E000151010AD8B41200030AD8B4D9D7010AA0
:1063AE00D8B4E6D70A0AD8B41200030AD8B4DBD799
:1063BE00010AD8A41200E7D7000E066E000E056E75
:1063CE0006BE06D0065060E1050E055CD8B05CD066
:1063DE00D8900534D96E0634DA6E600ED926000ECA
:1063EE00DA22000EDF6E05C001F006C002F0D89072
:1063FE0001360236010E0126000E0222600E012425
:10640E00D96E000E0220DA6E000EDF6E000E000155
:10641E006A6F000E6C6F000E6B6F000E6E6F000ECB
:10642E006D6FD8900534D96E0634DA6E6F0ED9269C
:10643E00000EDA22000EDF6E05C001F006C002F07B
:10644E00D89001360236600E036E000E046E0F0EEB
:10645E000326000E04220150032602500422010ED0
:10646E000324D96E000E0420DA6E000EDF6E000ECD
:10647E00796F000E7B6F000E7A6F000E7D6F000E2F
:10648E007C6F054A062A9CD7000E0001B16F000EE4
:10649E00B26F000EAF6F000EB06F12000FC013F090
:1064AE00146A156A0E34133601E3148013501A6EF3
:1064BE001A50D8A407D0000E0D6E000E0E6E000EF0
:1064CE000F6E120012C013F0146A156A11341336CF
:1064DE0001E3148013501B6E1B50D8A407D0000E7E
:1064EE000D6E000E0E6E000E0F6E1200000E176E69
:1064FE00000E186E000E196E1B50890F1A5E0FC01B
:10650E001BF012501B1A800E1B160E8EFF0E0D1650
:10651E00FF0E0E16000E0F16118EFF0E1016FF0E2A
:10652E001116000E1216180E166ED8901736183653
:10653E00193610500D5C11500E5812500F58D8A02D
:10654E0007D010500D5E11500E5A12500F5A178070
:10655E00D8900D360E360F36162EE7D717C001F02F
:10656E0018C002F019C003F01AC004F01BC005F0E9
:10657E0014EC2FF001C00DF002C00EF003C00FF0AE
:10658E0012000001B151B211D8B40ED0B1C0D9FF72
:10659E00B2C0DAFFDFAE03D0086A082A01D0086A5B
:1065AE000850096E0A6A04D0000E0A6E000E096EBB
:1065BE0009500A10D8A412000601139313911395D3
:1065CE0013971399139B139D139F14911493149562
:1065DE00149714991551F00B0809156F800E166F4C
:1065EE00800E176F00016005D8A403D0000E0601BF
:1065FE00176F00016205D8A402D0060117690001C9
:10660E006605D8A402D00601166900016405D8A457
:10661E0003D0000E0601166F00016805D8A402D043
:10662E000601138100016A05D8A40FD06BC016F6BF
:10663E006DC017F66405D8A402D0060113810001BF
:10664E006605D8A402D006011383010E016E130E47
:10665E00026E060E036E070E046E010EC6EC2EF0D1
:10666E0001C0B1F002C0B2F012000001AF51B01182
:10667E00D8B40ED0AFC0D9FFB0C0DAFFDFAE03D0B2
:10668E00086A082A01D0086A0850096E0A6A04D0FE
:10669E00000E0A6E000E096E09500A10D8A41200E0
:1066AE00060156935691569556975699569B569D5A
:1066BE00569F579157935795579757995851F00B97
:1066CE000809586F800E596F800E5A6F00016F05C2
:1066DE00D8A403D0000E06015A6F00017105D8A48C
:1066EE0002D006015A6900017505D8A402D0060130
:1066FE00596900017305D8A403D0000E0601596F25
:10670E0000017705D8A402D0060156810001790553
:10671E00D8A40FD07AC059F67CC05AF67305D8A407
:10672E0002D00601568100017505D8A402D00601DB
:10673E005683010E016E560E026E060E036E070E86
:10674E00046E020EC6EC2EF001C0AFF002C0B0F027
:10675E001200800E05010019D8A41200C00E536E4F
:10676E0062D0E80E506E7F0E516E000E556E120EF8
:10677E00546E12000251020D100EF324F66E7E0EB0
:10678E00F420F76E0900F5CF50F00A00F5CF51F066
:10679E00020E5024016E000E5120026E01C0F6FF53
:1067AE0002C0F7FFF86A070EF76407D00900F5CFAD
:1067BE0054F00900F5CF55F008D0F6CFE1FFF7CF32
:1067CE00E2FFE6CF54F0E6CF55F01200070E0501BA
:1067DE00026123D00251020D040EF324F66E7E0EDA
:1067EE00F420F76E0900F5CF50F00A00F5CF51F006
:1067FE0050C0F6FF51C0F7FFF86A070EF76403D0DA
:10680E000800F55005D0F6CFE1FFF7CFE2FFE750D5
:10681E00016E0150546E556A1200000E536E120036
:10682E00000E536E120005010351010AD8B499D718
:10683E00030AD8B49FD7010AD8B4C8D7F1D71EC05F
:10684E0022F0236A246A1D34223601E3238022506B
:10685E00256E2550D8A407D0000E1C6E000E1D6E9E
:10686E00000E1E6E120021C022F0236A246A20340C
:10687E00223601E3238022502A6E2A50D8A407D054
:10688E00000E1C6E000E1D6E000E1E6E12002A50A3
:10689E007B0F25261EC02AF021502A1A800E2A169A
:1068AE001D8E208EFF0E1F16FF0E2016000E2116B7
:1068BE00000E266E000E276E000E286E070E296E35
:1068CE001CA006D01F5026262050272221502822F9
:1068DE00D8901E321D321C32D8901F3620362136EB
:1068EE00292EEED7090E296E1CA006D01F50262683
:1068FE002050272221502822D8901E321D321C32C1
:10690E00D890283227322632292EEED726C001F013
:10691E0027C002F028C003F025C004F02AC005F0FD
:10692E0014EC2FF001C01CF002C01DF003C01EF0CD
:10693E00120003C005F0066A076A0234053601E349
:10694E00068005500F6E0F50D8A409D0000E016EB0
:10695E00000E026E000E036E000E046E1200170E75
:10696E00056E01C006F002C007F003C008F005284E
:10697E00096E04D0D890083207320632092EFAD7A3
:10698E0006500A6E028EFF0E0116FF0E0216000E44
:10699E00031601500B6E02500C6E03500D6E0E6AF4
:1069AE008E0E0F5E0FAE16D00F50800A8F0FD8B01E
:1069BE0009D0000E016E000E026E000E036E000E68
:1069CE00046E1200D8900E320D320C320B320F3E86
:1069DE00F9D715D0170E0F640FD0000E016E000EF2
:1069EE00026E000E036E000E046E1200D8900B366F
:1069FE000C360D360E360F060F50D8A4F7D70A50A8
:106A0E00D8B408D00E1E0D1E0C1E0B6C000E0C22E0
:106A1E000D220E220BC001F00CC002F00DC003F0CF
:106A2E000EC004F0120020EE01F05850D926595035
:106A3E00DA22DF50046E045000019B5D000E9C595B
:106A4E00D8B003D09BC004F00DD00450016E026A82
:106A5E00011E021E014A022A9B5101249B6F9C516A
:106A6E0002209C6F000E036E11D00350010D200EFC
:106A7E00F324D96E050EF420DA6E97C0E1FF98C0AC
:106A8E00E2FFDFCFE7FF974B982B032A0450035CFE
:106A9E00D8A0EBD79B519C11D8B426D020EE01F094
:106AAE005650D9265750DA22080EDF6E20EE02F02D
:106ABE005650D9265750DA22200EDE6E050EDD6EA8
:106ACE0058C0D9FF59C0DAFFDFBC07D056C0D9FF76
:106ADE0057C0DAFFC80EDF6E120056C0D9FF57C07E
:106AEE00DAFF880EDF6E120020EE01F05650D92626
:106AFE005750DA22080EDF6E20EE02F05650D926DD
:106B0E005750DA22000EDE6E050EDD6E56C0D9FF2E
:106B1E0057C0DAFF840EDF6E9A9F12000501020540
:106B2E00D8A40FD000511F0B0009D8A40AD0538E41
:106B3E00030E0119D8A402D0010E01D0000E0001DF
:106B4E00BB6F05010251D8A4120000511F0B020A9F
:106B5E00D8A4120004510F0B0009D8B41200538EA2
:106B6E0004BF0AD004510F0B016E0150020D9F0E8F
:106B7E00F324D96E000E09D004510F0B016E015093
:106B8E00020D480EF324D96E000EF420DA6EDECF1D
:106B9E0004F0DDCF05F0030E0119D8A407D004C010
:106BAE00D9FF05C0DAFF840EDF6E120004510F0B01
:106BBE00016E0150010D700EF324026E0F0EF420C3
:106BCE00036E02C0D9FF03C0DAFFFE0EDE16FF0E03
:106BDE00DD1604AF0FD004C0D9FF05C0DAFF000EDA
:106BEE00DF6E040E041A04C0D9FF05C0DAFF400E92
:106BFE00DF6E120004C0D9FF05C0DAFF880EDF6E0B
:106C0E00040E041A04C0D9FF05C0DAFFC80EDF6EE9
:106C1E001200555013E1080E545CD8B00FD054C07A
:106C2E0003F055C004F05B50D8A402D0010E04D07E
:106C3E005B04D8A407D0020E5B6E04D0000E046E67
:106C4E00080E036E48C0D9FF49C0DAFFDF9248C074
:106C5E00D9FF49C0DAFFDF9048C0D9FF49C0DAFF3B
:106C6E000450DF1220EE01F04850D9264950DA22A6
:106C7E0003C0DFFF03C001F004C002F0011E021EBC
:106C8E00014A022A54500124546E55500220556E6A
:106C9E00200E0001B76F050EB86F53A01ED03FD067
:106CAE0050C0F6FF51C0F7FFF86AB7C0D9FFB8C0A1
:106CBE00DAFF070EF76403D00800F55005D0F6CFC3
:106CCE00E1FFF7CFE2FFE750DF6E504A512A000195
:106CDE00B74BB82B0306D8A0040603500410D8B443
:106CEE001200DED750C0F6FF51C0F7FFF86AB7C0EA
:106CFE00D9FFB8C0DAFF070EF76403D00800F550CD
:106D0E0005D0F6CFE1FFF7CFE2FFE750DF6E504A36
:106D1E00512A0001B74BB82B0306D8A00406035026
:106D2E000410D8B41200DED75C50D8A410D0000ED8
:106D3E006D6E000E696E160E6F6E9F0E6B6E7B0E75
:106D4E00696E01D06D866DA6FDD7010E5C6E5C047A
:106D5E00D8B46DBA08D0000E686E000E696E6980E8
:106D6E006988020E5C6E68B469A403D068943DEC29
:106D7E002BF06DA202D0A19A120068B069A010D0BB
:106D8E0033EC2EF0040E5C6E000E0401026F050E45
:106D9E00036F080E016F000E006F8C0E00136890CB
:106DAE0068B869A803D019EC2BF0689868BC69AC78
:106DBE000FD0000E0D6E730E0C6E000E0E6E000ECA
:106DCE000F6E000E116E010E106E21EC2DF0689CF0
:106DDE0068BA69AA02D097EC2BF068B269A20FD0FC
:106DEE007F0E0D6E0C68000E0E6E000E0F6E000EF6
:106DFE00116E010E106E21EC2DF0000E6A6E040E57
:106E0E005C6002D0A19A120069A624D0000E186E02
:106E1E00030E186401D01ED068A61CD06CCF5DF096
:106E2E0068965DC017F0780E1716D8A403D0C6EC7E
:106E3E002FF00ED0000E0D6E720E0C6E5D0E0E6EDD
:106E4E00000E0F6E000E116E000E106E21EC2DF066
:106E5E00182ADED7A19A1200000E036E400E0364AC
:106E6E0001D012000350010D820EF324D96E010ED3
:106E7E00F420DA6EDE04D8A432D00350020D000ED8
:106E8E00F324D96E010EF420DA6EDF50D8A427D089
:106E9E000350020D010EF326000EF422000EF32411
:106EAE00D96E010EF420DA6E050EDF640BD003509E
:106EBE00020D000EF324D96E010EF420DA6E010ECF
:106ECE00DF6E0DD00350020D010EF326000EF422DC
:106EDE00000EF324D96E010EF420DA6EDF2A035071
:106EEE00010D820EF324D96E010EF420DA6EDF50FE
:106EFE00D8A432D00350020D000EF324D96E010E29
:106F0E00F420DA6EDE04D8A427D00350020D010E51
:106F1E00F326000EF422000EF324D96E010EF42097
:106F2E00DA6E050EDF640BD00350020D000EF32453
:106F3E00D96E010EF420DA6E000EDF6E0DD0035006
:106F4E00020D010EF326000EF422000EF324D96E6C
:106F5E00010EF420DA6EDF2A0350010D820EF324A7
:106F6E00D96E010EF420DA6E0350020D000EF324DA
:106F7E00E16E010EF420E26EDE50E618D8A40ED0BB
:106F8E000350020D010EF326000EF422000EF32420
:106F9E00D96E010EF420DA6E000EDF6E032A5ED774
:106FAE00000E1B6E000E1A6E000E196E000E186E7D
:106FBE00000E1D6E000E1C6E1D5014E1060E1C5CA4
:106FCE00D8B010D0D8901C34D96E1D34DA6E0A0E9B
:106FDE00D926000EDA22000EDE6E000EDD6E1C4A81
:106FEE001D2AEAD70001B551B611D8B40ED0B5C0DE
:106FFE00D9FFB6C0DAFFDFAE03D0086A082A01D087
:10700E00086A0850166E176A04D0000E176E000E2E
:10701E00166E16501710D8A41200000E1D6E000E1C
:10702E001C6E1D5049E144D0D8901C34D96E1D34CD
:10703E00DA6E000ED926010EDA22DE04D8A434D080
:10704E001B5032E1060E1A5CD8B02ED0050E1C185D
:10705E001D10D8A402D0188027D00B0E1C181D109E
:10706E00D8A402D0188220D0340E1C181D10D8A41B
:10707E0002D0188A19D0C30E1C24F66E7D0E1D2068
:10708E00F76E0800F550086E096AD8901A34D96E5A
:10709E001B34DA6E0A0ED926000EDA2208C0DEFF85
:1070AE0009C0DDFF1A4A1B2A1C4A1D2A1D5004E185
:1070BE00410E1C5CD8A0B8D718C07BF6000E060196
:1070CE007C6F0AC07DF60CC07EF60EC07FF610C037
:1070DE0080F612C081F614C082F6010E016E7B0E90
:1070EE00026E060E036E080E046E030EC6EC2EF034
:1070FE0001C0B5F002C0B6F01200000E046E070E0D
:10710E00046401D09DD00450D8A402D0959001D033
:10711E0095800404D8A402D0959201D09582020ED7
:10712E000418D8A402D0959401D09584030E0418A7
:10713E00D8A402D0959601D09586040E0418D8A432
:10714E0002D0959801D09588050E0418D8A402D0C7
:10715E00959A01D0958A060E0418D8A402D0959C53
:10716E0001D0958C070E0418D8A402D0959E01D09C
:10717E00958E080EE82EFED7000E036E070E0364E2
:10718E0001D05CD00350D8A404D0000E81B0010E03
:10719E00026E0304D8A404D0000E81B2010E026E5A
:1071AE00020E0318D8A404D0000E81B4010E026E94
:1071BE00030E0318D8A404D0000E81B6010E026E81
:1071CE00040E0318D8A404D0000E81B8010E026E6E
:1071DE00050E0318D8A404D0000E81BA010E026E5B
:1071EE00060E0318D8A404D0000E81BC010E026E48
:1071FE00070E0318D8A404D0000E81BE010E026E35
:10720E000450080DF3500324016E0250D8A40AD086
:10721E000150010D820EF324D96E010EF420DA6EA8
:10722E00010E09D00150010D820EF324D96E010E0C
:10723E00F420DA6E000EDF6E032AA0D7042A5FD781
:10724E0082B404D0010E0101C26F1200000E0101C2
:10725E00C26F12003F6E09D0030E05D0070E03D089
:10726E000B0E01D00F0EC26E0DD03F50000AD8B4D7
:10727E00F5D7010AD8B4F0D7020AD8B4F1D7070A65
:10728E00D8B4F0D7C2B2FED7C3CF40F0416AC450D3
:10729E00412640504110D8B49DD0000E106E7A0E8B
:1072AE00116E440E126E40C009F041C00AF0B2ECED
:1072BE002BF009C00DF00AC00EF00BC00FF055EC0C
:1072CE0032F00DC039F00EC03AF00FC03BF0000E98
:1072DE002E6EC80E2F6EC20E306E000E1F6EC80EB2
:1072EE00206E420E216E39C010F03AC011F03BC034
:1072FE0012F0F20E0D6E820E0E6E3F0E0F6E55ECEC
:10730E0032F00DC01CF00EC01DF00FC01EF026ECAA
:10731E0034F01CC02BF01DC02CF01EC02DF0C5EC9F
:10732E003AF02BC03CF02CC03DF02DC03EF03CC0DE
:10733E001CF03DC01DF03EC01EF09A0E1F6E190EC1
:10734E00206E3F0E216E26EC34F01CC042F01DC0A4
:10735E0043F01EC044F0000E016E7F0E026E430E0F
:10736E00036E42C004F043C005F044C006F0EBECDF
:10737E002DF0D8B006D0000E426E7F0E436E430E37
:10738E00446E42C001F043C002F044C003F02BEC47
:10739E002BF001C02BF002C02CF003C02DF0000E1C
:1073AE002E6E7F0E2F6E430E306EC5EC3AF02BC054
:1073BE0042F02CC043F02DC044F042C001F043C057
:1073CE0002F044C003F0A0EC34F001C037F002C06C
:1073DE0038F012003768386812006D9853BE4BD0E3
:1073EE0000019AAF29D0020E5A6E20EE01F04850DD
:1073FE00D9264950DA22000EDF6E48C0D9FF49C0A7
:10740E00DAFFC80EDF6E20EE01F05650D926575027
:10741E00DA22080EDF6E20EE02F05650D9265750B3
:10742E00DA22200EDE6E050EDD6E56C0D9FF57C075
:10743E00DAFFC80EDF6E120020EE01F05650D9268C
:10744E005750DA22080EDF6E20EE02F05650D92683
:10745E005750DA22000EDE6E050EDD6E56C0D9FFD5
:10746E0057C0DAFF8C0EDF6E48C0D9FF49C0DAFF75
:10747E00840EDF6E120000019ABF1200050100AFEC
:10748E0054D05450065D55500759D8B004D006C597
:10749E0054F007C555F010EC36F0010E5A6E20EE82
:1074AE0001F05650D9265750DA22080EDF6E20EE24
:1074BE0002F05650D9265750DA22000EDE6E050E17
:1074CE00DD6E56C0D9FF57C0DAFF800EDF6E000E9C
:1074DE000001BA6F20EE01F05850D9265950DA2229
:1074EE00080EDF6E20EE02F05850D9265950DA22DF
:1074FE00000EDE6E050EDD6E58C0D9FF59C0DAFFE4
:10750E00840EDF6E010EBA6F20EE02F04850D926BF
:10751E004950DA22200EDE6E050EDD6E48C0D9FF10
:10752E0049C0DAFFC80EDF6E1200020E5A6E20EE50
:10753E0001F04850D9264950DA22000EDF6E48C0BD
:10754E00D9FF49C0DAFFC80EDF6E20EE01F05650AB
:10755E00D9265750DA22080EDF6E20EE02F0565072
:10756E00D9265750DA22200EDE6E050EDD6E56C07D
:10757E00D9FF57C0DAFFC80EDF6E12002DC031F0F2
:10758E00326A336A2C34313601E332803150366E32
:10759E0030C031F0326A336A2F34313601E3328033
:1075AE003150356E3650D8B40BD03550365CD8B01D
:1075BE000ED0365000083524316E180E316407D0C7
:1075CE002EC02BF02FC02CF030C02DF012003550F5
:1075DE00D8B40BD03650355CD8B00ED0355000082C
:1075EE003624316E180E316407D02BC02BF02CC010
:1075FE002CF02DC02DF01200060E346E2DBE348EE2
:10760E0030BE348C2C8EFF0E2B16FF0E2C16000E59
:10761E002D162F8EFF0E2E16FF0E2F16000E301665
:10762E003550365CD8B01BD0D8902E362F3630362B
:10763E00350636503518D8B40DD0340634C031F076
:10764E00070E3116D8B406D0EFD7D8902D322C3283
:10765E002B32362A35503618D8B41FD0F6D73650BE
:10766E00355CD8B01AD0D8902B362C362D3636063F
:10767E0036503518D8B40DD0340634C031F0070E5C
:10768E003116D8B406D0EFD7D89030322F322E32F2
:10769E00352A35503618D8A4F7D734AE0CD0FF0E95
:1076AE002B1AFF0E2C1AFF0E2D1A010E2B26000E72
:1076BE002C22000E2D2234AC0CD0FF0E2E1AFF0EF3
:1076CE002F1AFF0E301A010E2E26000E2F22000E3C
:1076DE003022000E346E2B502E262C502F222D5081
:1076EE00302230AE0ED0FF0E2E1AFF0E2F1AFF0EC6
:1076FE00301A010E2E26000E2F22000E3022010E01
:10770E00346E2EC001F02FC002F030C003F036C030
:10771E0004F034C005F014EC2FF001C02BF002C0C1
:10772E002CF003C02DF01200000E476E010E4764C0
:10773E0001D00CD34750D8A408D09298928A809842
:10774E00809A080EE82EFED707D09288929A8098DB
:10775E00809A080EE82EFED781B632D047500F0D14
:10776E00600EF324D96E000EF420DA6EDF50D8A42A
:10777E0027D047500F0D010EF326000EF422600E97
:10778E00F324D96E000EF420DA6E050EDF640BD0F2
:10779E0047500F0D600EF324D96E000EF420DA6EF2
:1077AE00010EDF6E0DD047500F0D010EF326000EA9
:1077BE00F422600EF324D96E000EF420DA6EDF2A66
:1077CE0081A632D047500F0D600EF324D96E000EF5
:1077DE00F420DA6EDE04D8A427D047500F0D010E28
:1077EE00F326000EF422600EF324D96E000EF42060
:1077FE00DA6E050EDF640BD047500F0D600EF324CA
:10780E00D96E000EF420DA6E000EDF6E0DD04750EA
:10781E000F0D010EF326000EF422600EF324D96E26
:10782E00000EF420DA6EDF2A47500F0D600EF3249F
:10783E00D96E000EF420DA6E81A603D0466A462A6F
:10784E0001D0466ADE504618D8B40ED047500F0D00
:10785E00010EF326000EF422600EF324D96E000EF4
:10786E00F420DA6E000EDF6E81BA3AD047500F0D5B
:10787E00020EF326000EF422600EF324D96E000ED3
:10788E00F420DA6EDF50D8A42BD047500F0D030E24
:10789E00F326000EF422600EF324D96E000EF420AF
:1078AE00DA6E050EDF640FD047500F0D020EF32671
:1078BE00000EF422600EF324D96E000EF420DA6E60
:1078CE00010EDF6E0DD047500F0D030EF326000E86
:1078DE00F422600EF324D96E000EF420DA6EDF2A45
:1078EE0081AA3AD047500F0D020EF326000EF42255
:1078FE00600EF324D96E000EF420DA6EDE04D8A4E6
:10790E002BD047500F0D030EF326000EF422600EFF
:10791E00F324D96E000EF420DA6E050EDF640FD05C
:10792E0047500F0D020EF326000EF422600EF324C4
:10793E00D96E000EF420DA6E000EDF6E0DD04750B9
:10794E000F0D030EF326000EF422600EF324D96EF3
:10795E00000EF420DA6EDF2A47500F0D020EF326CA
:10796E00000EF422600EF324D96E000EF420DA6EAF
:10797E0081AA03D0466A462A01D0466ADE504618CE
:10798E00D8B40ED047500F0D030EF326000EF4227E
:10799E00600EF324D96E000EF420DA6E000EDF6E48
:1079AE0081BC3AD047500F0D040EF326000EF42280
:1079BE00600EF324D96E000EF420DA6EDF50D8A4D8
:1079CE002BD047500F0D050EF326000EF422600E3D
:1079DE00F324D96E000EF420DA6E050EDF640FD09C
:1079EE0047500F0D040EF326000EF422600EF32402
:1079FE00D96E000EF420DA6E010EDF6E0DD04750F8
:107A0E000F0D050EF326000EF422600EF324D96E30
:107A1E00000EF420DA6EDF2A81AC3AD047500F0DFB
:107A2E00040EF326000EF422600EF324D96E000E1F
:107A3E00F420DA6EDE04D8A42BD047500F0D050EBD
:107A4E00F326000EF422600EF324D96E000EF420FD
:107A5E00DA6E050EDF640FD047500F0D040EF326BD
:107A6E00000EF422600EF324D96E000EF420DA6EAE
:107A7E00000EDF6E0DD047500F0D050EF326000ED3
:107A8E00F422600EF324D96E000EF420DA6EDF2A93
:107A9E0047500F0D040EF326000EF422600EF32451
:107AAE00D96E000EF420DA6E81AC03D0466A462AF7
:107ABE0001D0466ADE504618D8B40ED047500F0D8E
:107ACE00050EF326000EF422600EF324D96E000E7E
:107ADE00F420DA6E000EDF6E81BE3AD047500F0DE5
:107AEE00060EF326000EF422600EF324D96E000E5D
:107AFE00F420DA6EDF50D8A42BD047500F0D070EAE
:107B0E00F326000EF422600EF324D96E000EF4203C
:107B1E00DA6E050EDF640FD047500F0D060EF326FA
:107B2E00000EF422600EF324D96E000EF420DA6EED
:107B3E00010EDF6E0DD047500F0D070EF326000E0F
:107B4E00F422600EF324D96E000EF420DA6EDF2AD2
:107B5E0081AE3AD047500F0D060EF326000EF422DA
:107B6E00600EF324D96E000EF420DA6EDE04D8A473
:107B7E002BD047500F0D070EF326000EF422600E89
:107B8E00F324D96E000EF420DA6E050EDF640FD0EA
:107B9E0047500F0D060EF326000EF422600EF3244E
:107BAE00D96E000EF420DA6E000EDF6E0DD0475047
:107BBE000F0D070EF326000EF422600EF324D96E7D
:107BCE00000EF420DA6EDF2A47500F0D060EF32654
:107BDE00000EF422600EF324D96E000EF420DA6E3D
:107BEE0081AE03D0466A462A01D0466ADE50461858
:107BFE00D8B40ED047500F0D070EF326000EF42208
:107C0E00600EF324D96E000EF420DA6E000EDF6ED5
:107C1E0081B83AD047500F0D080EF326000EF4220D
:107C2E00600EF324D96E000EF420DA6EDF50D8A465
:107C3E002BD047500F0D090EF326000EF422600EC6
:107C4E00F324D96E000EF420DA6E050EDF640FD029
:107C5E0047500F0D080EF326000EF422600EF3248B
:107C6E00D96E000EF420DA6E010EDF6E0DD0475085
:107C7E000F0D090EF326000EF422600EF324D96EBA
:107C8E00000EF420DA6EDF2A81A83AD047500F0D8D
:107C9E00080EF326000EF422600EF324D96E000EA9
:107CAE00F420DA6EDE04D8A42BD047500F0D090E47
:107CBE00F326000EF422600EF324D96E000EF4208B
:107CCE00DA6E050EDF640FD047500F0D080EF32647
:107CDE00000EF422600EF324D96E000EF420DA6E3C
:107CEE00000EDF6E0DD047500F0D090EF326000E5D
:107CFE00F422600EF324D96E000EF420DA6EDF2A21
:107D0E0047500F0D080EF326000EF422600EF324DA
:107D1E00D96E000EF420DA6E81A803D0466A462A88
:107D2E0001D0466ADE504618D8B40ED047500F0D1B
:107D3E00090EF326000EF422600EF324D96E000E07
:107D4E00F420DA6E000EDF6E472AF0D49288928A03
:107D5E00000E31EC39F037C06BF038C06CF0010E0C
:107D6E0031EC39F037C06DF038C06EF000016B2980
:107D7E0005E16C29D8A402D0000E01D0010E6A6F65
:107D8E00030E31EC39F037C07AF038C07BF0040EB8
:107D9E0031EC39F037C07CF038C07DF000017A2923
:107DAE0006E17B29D8A403D0000E796F1200010ED4
:107DBE00796F1200001E352B292CE0141F201A0497
:107DCE00E11D1608212215071B06091723241C0A7C
:107DDE0019050B1825260C0D11100E12272D130F39
:107DEE003637332F2E49303438E5314C4A2A284F56
:107DFE00513A3C3E404BFA7FD27F967F727F4E7F48
:107E0E00B87F127E09026900030100C03209040026
:107E1E00000203000003092111010001224A00079C
:107E2E00058103400001070501034000010904011B
:107E3E00000203000004092111010001224A00077B
:107E4E0005820340000107050203400001090402F8
:107E5E00000203010105092111010001223F000763
:107E6E000583030800010705030308000105010946
:107E7E0005A10115002501350045017501950D057A
:107E8E00091901290D810295038101050125074676
:107E9E003B01750495016514093981426500950110
:107EAE00810126FF0046FF000930093109320935EC
:107EBE00750895048102C005010905A1011500256B
:107ECE0001350045017501950D05091901290D8131
:107EDE00029503810105012507463B0175049501B5
:107EEE0065140939814265009501810126FF00461E
:107EFE00FF000930093109320935750895048102F0
:107F0E00C005010906A101050719E029E71500259D
:107F1E000175019508810295017508810395057516
:107F2E000105081901290591029501750391039523
:107F3E00067508150025650507190029658100C01D
:107F4E00240343003600340020004A006F007900FD
:107F5E0073007400690063006B00200050006F0016
:107F6E0072007400240343003600340020004A00DF
:107F7E006F00790073007400690063006B002000CD
:107F8E0050006F0072007400220343006F006D00FA
:107F9E006D006F0064006F007200650020003600F7
:107FAE00340020005500530042001A0343003600EF
:107FBE00340020004B006500790062006F00610004
:107FCE00720064001603530069006D006F006E00AE
:107FDE00200049006E006E007300120100020000C6
:107FEE000008D8047800010001020001040309040E
:017FFE000082
:020000040020DA
:08000000FFFFFFFFFFFFFFFF00
:020000040030CA
:0E000000240E3F1EFF8181FF0FC00FE00F4056
:00000001FF
